{
    "contractName": "Bingo",
    "abi": [
        {
            "inputs": [],
            "stateMutability": "nonpayable",
            "type": "constructor"
        },
        {
            "anonymous": false,
            "inputs": [
                {
                    "indexed": false,
                    "internalType": "address",
                    "name": "_sender",
                    "type": "address"
                },
                {
                    "indexed": false,
                    "internalType": "uint256",
                    "name": "_amount",
                    "type": "uint256"
                },
                {
                    "indexed": true,
                    "internalType": "uint256",
                    "name": "_gameId",
                    "type": "uint256"
                },
                {
                    "indexed": false,
                    "internalType": "uint256",
                    "name": "_response",
                    "type": "uint256"
                }
            ],
            "name": "AmountEthResponse",
            "type": "event"
        },
        {
            "anonymous": false,
            "inputs": [
                {
                    "indexed": true,
                    "internalType": "uint256",
                    "name": "_gameId",
                    "type": "uint256"
                },
                {
                    "indexed": false,
                    "internalType": "address",
                    "name": "_address",
                    "type": "address"
                },
                {
                    "indexed": false,
                    "internalType": "uint256",
                    "name": "_row",
                    "type": "uint256"
                },
                {
                    "indexed": false,
                    "internalType": "uint256",
                    "name": "_col",
                    "type": "uint256"
                }
            ],
            "name": "Checkvalue",
            "type": "event"
        },
        {
            "anonymous": false,
            "inputs": [
                {
                    "indexed": true,
                    "internalType": "uint256",
                    "name": "_gameId",
                    "type": "uint256"
                }
            ],
            "name": "GameCancelled",
            "type": "event"
        },
        {
            "anonymous": false,
            "inputs": [
                {
                    "indexed": true,
                    "internalType": "uint256",
                    "name": "_gameId",
                    "type": "uint256"
                },
                {
                    "indexed": false,
                    "internalType": "uint256",
                    "name": "_maxJoiners",
                    "type": "uint256"
                },
                {
                    "indexed": false,
                    "internalType": "uint256",
                    "name": "_totalJoiners",
                    "type": "uint256"
                }
            ],
            "name": "GameCreated",
            "type": "event"
        },
        {
            "anonymous": false,
            "inputs": [
                {
                    "indexed": true,
                    "internalType": "uint256",
                    "name": "_gameId",
                    "type": "uint256"
                },
                {
                    "indexed": false,
                    "internalType": "address",
                    "name": "_winner",
                    "type": "address"
                },
                {
                    "indexed": false,
                    "internalType": "enum Bingo.WinningReasons",
                    "name": "_reason",
                    "type": "uint8"
                }
            ],
            "name": "GameEnded",
            "type": "event"
        },
        {
            "anonymous": false,
            "inputs": [
                {
                    "indexed": true,
                    "internalType": "uint256",
                    "name": "_gameId",
                    "type": "uint256"
                },
                {
                    "indexed": false,
                    "internalType": "address",
                    "name": "_creator",
                    "type": "address"
                },
                {
                    "indexed": false,
                    "internalType": "address",
                    "name": "_joiner",
                    "type": "address"
                },
                {
                    "indexed": false,
                    "internalType": "uint256",
                    "name": "_maxjoiners",
                    "type": "uint256"
                },
                {
                    "indexed": false,
                    "internalType": "uint256",
                    "name": "_totalJoiners",
                    "type": "uint256"
                },
                {
                    "indexed": false,
                    "internalType": "uint256",
                    "name": "_ethAmount",
                    "type": "uint256"
                }
            ],
            "name": "GameJoined",
            "type": "event"
        },
        {
            "anonymous": false,
            "inputs": [
                {
                    "indexed": true,
                    "internalType": "uint256",
                    "name": "_gameId",
                    "type": "uint256"
                }
            ],
            "name": "GameStarted",
            "type": "event"
        },
        {
            "anonymous": false,
            "inputs": [
                {
                    "indexed": true,
                    "internalType": "uint256",
                    "name": "_gameId",
                    "type": "uint256"
                },
                {
                    "indexed": false,
                    "internalType": "uint256",
                    "name": "_maxjoiners",
                    "type": "uint256"
                },
                {
                    "indexed": false,
                    "internalType": "uint256",
                    "name": "_totalJoiners",
                    "type": "uint256"
                },
                {
                    "indexed": false,
                    "internalType": "uint256",
                    "name": "_ethAmount",
                    "type": "uint256"
                }
            ],
            "name": "GetInfo",
            "type": "event"
        },
        {
            "anonymous": false,
            "inputs": [
                {
                    "indexed": false,
                    "internalType": "string",
                    "name": "message",
                    "type": "string"
                }
            ],
            "name": "Log",
            "type": "event"
        },
        {
            "anonymous": false,
            "inputs": [
                {
                    "indexed": true,
                    "internalType": "uint256",
                    "name": "_gameId",
                    "type": "uint256"
                },
                {
                    "indexed": false,
                    "internalType": "address",
                    "name": "player",
                    "type": "address"
                },
                {
                    "indexed": false,
                    "internalType": "bytes32",
                    "name": "a",
                    "type": "bytes32"
                }
            ],
            "name": "NotBingo",
            "type": "event"
        },
        {
            "anonymous": false,
            "inputs": [
                {
                    "indexed": false,
                    "internalType": "uint256",
                    "name": "_gameId",
                    "type": "uint256"
                },
                {
                    "indexed": false,
                    "internalType": "uint8",
                    "name": "number",
                    "type": "uint8"
                }
            ],
            "name": "NumberExtracted",
            "type": "event"
        },
        {
            "anonymous": false,
            "inputs": [
                {
                    "indexed": true,
                    "internalType": "uint256",
                    "name": "_gameId",
                    "type": "uint256"
                },
                {
                    "indexed": false,
                    "internalType": "address",
                    "name": "_accuser",
                    "type": "address"
                }
            ],
            "name": "ResolveAccuse",
            "type": "event"
        },
        {
            "inputs": [
                {
                    "internalType": "bytes32",
                    "name": "_bytes32",
                    "type": "bytes32"
                }
            ],
            "name": "bytes32ToString",
            "outputs": [
                {
                    "internalType": "string",
                    "name": "",
                    "type": "string"
                }
            ],
            "stateMutability": "pure",
            "type": "function"
        },
        {
            "inputs": [
                {
                    "internalType": "uint256",
                    "name": "_maxJoiners",
                    "type": "uint256"
                },
                {
                    "internalType": "uint256",
                    "name": "_betAmount",
                    "type": "uint256"
                },
                {
                    "internalType": "bytes32",
                    "name": "_cardMerkleRoot",
                    "type": "bytes32"
                }
            ],
            "name": "createGame",
            "outputs": [],
            "stateMutability": "payable",
            "type": "function"
        },
        {
            "inputs": [
                {
                    "internalType": "uint256",
                    "name": "_gameId",
                    "type": "uint256"
                }
            ],
            "name": "distributePrizetoAll",
            "outputs": [],
            "stateMutability": "nonpayable",
            "type": "function"
        },
        {
            "inputs": [
                {
                    "internalType": "uint256",
                    "name": "",
                    "type": "uint256"
                }
            ],
            "name": "elencoGiochiDisponibili",
            "outputs": [
                {
                    "internalType": "uint256",
                    "name": "",
                    "type": "uint256"
                }
            ],
            "stateMutability": "view",
            "type": "function"
        },
        {
            "inputs": [
                {
                    "internalType": "uint256",
                    "name": "_gameId",
                    "type": "uint256"
                }
            ],
            "name": "extractNumber",
            "outputs": [],
            "stateMutability": "nonpayable",
            "type": "function"
        },
        {
            "inputs": [],
            "name": "gameId",
            "outputs": [
                {
                    "internalType": "uint256",
                    "name": "",
                    "type": "uint256"
                }
            ],
            "stateMutability": "view",
            "type": "function"
        },
        {
            "inputs": [
                {
                    "internalType": "uint256",
                    "name": "",
                    "type": "uint256"
                }
            ],
            "name": "gameList",
            "outputs": [
                {
                    "internalType": "address",
                    "name": "creator",
                    "type": "address"
                },
                {
                    "internalType": "uint256",
                    "name": "maxJoiners",
                    "type": "uint256"
                },
                {
                    "internalType": "uint256",
                    "name": "totalJoiners",
                    "type": "uint256"
                },
                {
                    "internalType": "uint256",
                    "name": "ethBalance",
                    "type": "uint256"
                },
                {
                    "internalType": "uint256",
                    "name": "betAmount",
                    "type": "uint256"
                },
                {
                    "internalType": "bytes32",
                    "name": "creatorMerkleRoot",
                    "type": "bytes32"
                },
                {
                    "internalType": "uint256",
                    "name": "accusationTime",
                    "type": "uint256"
                },
                {
                    "internalType": "address",
                    "name": "accuser",
                    "type": "address"
                }
            ],
            "stateMutability": "view",
            "type": "function"
        },
        {
            "inputs": [
                {
                    "internalType": "uint256",
                    "name": "_gameid",
                    "type": "uint256"
                }
            ],
            "name": "getInfoGame",
            "outputs": [],
            "stateMutability": "nonpayable",
            "type": "function"
        },
        {
            "inputs": [
                {
                    "internalType": "uint256",
                    "name": "_gameId",
                    "type": "uint256"
                }
            ],
            "name": "getJoinerMerkleRoots",
            "outputs": [
                {
                    "internalType": "bytes32[]",
                    "name": "",
                    "type": "bytes32[]"
                }
            ],
            "stateMutability": "view",
            "type": "function"
        },
        {
            "inputs": [
                {
                    "internalType": "uint256",
                    "name": "_gameId",
                    "type": "uint256"
                },
                {
                    "internalType": "bytes32",
                    "name": "_cardMerkleRoot",
                    "type": "bytes32"
                }
            ],
            "name": "joinGame",
            "outputs": [],
            "stateMutability": "nonpayable",
            "type": "function"
        },
        {
            "inputs": [
                {
                    "internalType": "uint256",
                    "name": "_gameId",
                    "type": "uint256"
                }
            ],
            "name": "remove",
            "outputs": [
                {
                    "internalType": "bool",
                    "name": "",
                    "type": "bool"
                }
            ],
            "stateMutability": "nonpayable",
            "type": "function"
        },
        {
            "inputs": [
                {
                    "internalType": "uint256",
                    "name": "_gameId",
                    "type": "uint256"
                }
            ],
            "name": "removeFromGiochiDisponibili",
            "outputs": [
                {
                    "internalType": "bool",
                    "name": "",
                    "type": "bool"
                }
            ],
            "stateMutability": "nonpayable",
            "type": "function"
        },
        {
            "inputs": [
                {
                    "internalType": "string",
                    "name": "s",
                    "type": "string"
                }
            ],
            "name": "stringToUint",
            "outputs": [
                {
                    "internalType": "uint256",
                    "name": "",
                    "type": "uint256"
                }
            ],
            "stateMutability": "pure",
            "type": "function"
        },
        {
            "inputs": [
                {
                    "internalType": "uint256",
                    "name": "_gameId",
                    "type": "uint256"
                },
                {
                    "internalType": "bytes32[][]",
                    "name": "_merkleProofs",
                    "type": "bytes32[][]"
                }
            ],
            "name": "submitCard",
            "outputs": [],
            "stateMutability": "nonpayable",
            "type": "function"
        }
    ],
    "bytecode": "60806040526000805534801561001457600080fd5b50611dbb806100246000396000f3fe6080604052600436106100dd5760003560e01c80638aa9c0061161007f578063ac95267111610059578063ac95267114610234578063c6cfd08e14610254578063d7c81b5514610307578063f0eb3df61461031d57600080fd5b80638aa9c006146101da5780639201de551461020757806399e15c771461018a57600080fd5b806344e8decd116100bb57806344e8decd1461015757806346ac2b99146101775780634cc822151461018a57806375eae462146101ba57600080fd5b806308682d56146100e25780630ecc2751146101045780631bd9515514610124575b600080fd5b3480156100ee57600080fd5b506101026100fd36600461198a565b61033d565b005b34801561011057600080fd5b5061010261011f366004611aa2565b6106a0565b34801561013057600080fd5b5061014461013f366004611abb565b6107a9565b6040519081526020015b60405180910390f35b34801561016357600080fd5b50610102610172366004611aa2565b6108a7565b610102610185366004611b50565b610a34565b34801561019657600080fd5b506101aa6101a5366004611aa2565b610c3f565b604051901515815260200161014e565b3480156101c657600080fd5b506101026101d5366004611aa2565b610cdc565b3480156101e657600080fd5b506101fa6101f5366004611aa2565b610e7c565b60405161014e9190611b7c565b34801561021357600080fd5b50610227610222366004611aa2565b610f6d565b60405161014e9190611be4565b34801561024057600080fd5b5061010261024f366004611c17565b6110a4565b34801561026057600080fd5b506102bd61026f366004611aa2565b60016020526000908152604090208054600282015460038301546004840154600585015460068601546009870154600a909701546001600160a01b0396871697959694959394929391921688565b604080516001600160a01b03998a16815260208101989098528701959095526060860193909352608085019190915260a084015260c083015290911660e08201526101000161014e565b34801561031357600080fd5b5061014460005481565b34801561032957600080fd5b50610144610338366004611aa2565b6114c4565b600082116103895760405162461bcd60e51b815260206004820152601460248201527347616d65206964206973206e656761746976652160601b60448201526064015b60405180910390fd5b6000828152600160205260409020546001600160a01b031633148061041857506000828152600160208181526040928390209091018054835181840281018401909452808452610418939283018282801561040d57602002820191906000526020600020905b81546001600160a01b031681526001909101906020018083116103ef575b5050505050336114e5565b6104645760405162461bcd60e51b815260206004820152601860248201527f506c61796572206e6f7420696e20746861742067616d652100000000000000006044820152606401610380565b6000828152600160205260408120546001600160a01b031633146104a45760008381526001602090815260408083203384526007019091529020546104b7565b6000838152600160205260409020600601545b905060005b82518160ff16101561065f576105628261050b858460ff16815181106104e4576104e4611c39565b60200260200101516000815181106104fe576104fe611c39565b6020026020010151610f6d565b858460ff168151811061052057610520611c39565b602002602001015161055d61013f888760ff168151811061054357610543611c39565b60200260200101516001815181106104fe576104fe611c39565b611550565b61064d57837f9b59476879bcc694961e5cc7bc63004a8675a6ab7769103f3b0c1320c16b5d9c336105a1868560ff16815181106104e4576104e4611c39565b6040516020016105b19190611c4f565b60405160208183030381529060405280519060200120868560ff16815181106105dc576105dc611c39565b60200260200101516002815181106105f6576105f6611c39565b6020026020010151604051602001610618929190918252602082015260400190565b60408051601f1981840301815282825280516020918201206001600160a01b0390941683528201929092520160405180910390a25b8061065781611c81565b9150506104bc565b50827f6c757ec5610cce7339ac36fb261615c9fdbbbf391be874da1aa9df3299b548de336000604051610693929190611ca0565b60405180910390a2505050565b600081815260016020819052604082209081015460048201549192916106c69190611cf1565b905060005b60018301548110156107575760008360010182815481106106ee576106ee611c39565b6000918252602090912001546001600160a01b03169050338114610744576040516001600160a01b0382169084156108fc029085906000818181858888f19350505050158015610742573d6000803e3d6000fd5b505b508061074f81611d05565b9150506106cb565b5081546001600160a01b031633146107a45781546040516001600160a01b039091169082156108fc029083906000818181858888f193505050501580156107a2573d6000803e3d6000fd5b505b505050565b60008181805b825181101561089f57603060f81b8382815181106107cf576107cf611c39565b01602001516001600160f81b031916108015906108105750603960f81b8382815181106107fe576107fe611c39565b01602001516001600160f81b03191611155b6108505760405162461bcd60e51b815260206004820152601160248201527024b73b30b634b21031b430b930b1ba32b960791b6044820152606401610380565b603083828151811061086457610864611c39565b0160200151610876919060f81c611d1e565b61088183600a611d31565b61088b9190611d48565b91508061089781611d05565b9150506107af565b509392505050565b806000036109665760006108b9611667565b9050806000036109015760405162461bcd60e51b81526020600482015260136024820152724e6f20617661696c61626c652067616d65732160681b6044820152606401610380565b600081815260016020908152604091829020600281015460038201546005909201548451918252928101919091529182015281907feb4208b11750d0e8c6e1393b8097bd27f631ecd625840beb093dcf890b5d023a9060600160405180910390a25050565b600254610972826116ae565b11156109d05760405162461bcd60e51b815260206004820152602760248201527f526576657274656420626563617573652067616d65206973206e6f7420617661604482015266696c61626c652160c81b6064820152608401610380565b600081815260016020908152604091829020600281015460038201546005909201548451918252928101919091529182015281907feb4208b11750d0e8c6e1393b8097bd27f631ecd625840beb093dcf890b5d023a9060600160405180910390a250565b60008311610a8f5760405162461bcd60e51b815260206004820152602260248201527f4d6178206a6f696e657273206d7573742062652067726561746572207468616e604482015261020360f41b6064820152608401610380565b60008211610ae95760405162461bcd60e51b815260206004820152602160248201527f42657420616d6f756e74206d7573742062652067726561746572207468616e206044820152600360fc1b6064820152608401610380565b6000610af3611707565b600081815260016020526040812080546001600160a01b03191633178155919250604051908082528060200260200182016040528015610b3d578160200160208202803683370190505b508051610b549160018401916020909101906118a5565b50600280820186905560006003830181905560048301818155600584018790556006840186905560098401829055600a840180546001600160a01b0319169055338252600784016020526040822082905582546001810184559282527f405787fa12a823e0f2b7631cc41b3ba8828b3321ca811111fa75cd3aa3bb5ace909201849055815486929190610be8908490611d48565b90915550506002810154600382015460405184927fbd3f84a55fdc44f970adc6ccbaa93e78d7da5f3fc37c4b7da578d47c9ad2e46a92610c3092918252602082015260400190565b60405180910390a25050505050565b600080610c4b836116ae565b600254909150811015610cd35760028054610c6890600190611d1e565b81548110610c7857610c78611c39565b906000526020600020015460028281548110610c9657610c96611c39565b6000918252602090912001556002805480610cb357610cb3611d5b565b600190038181906000526020600020016000905590556001915050919050565b50600092915050565b600081815260016020526040902060080154604b1015610d3e5760405162461bcd60e51b815260206004820181905260248201527f416c6c206e756d626572732068617665206265656e20657874726163746564216044820152606401610380565b6000610d4982611721565b905060015b6000838152600160209081526040918290206008018054835181840281018401909452808452610dd19392830182828015610dc657602002820191906000526020600020906000905b825461010083900a900460ff16815260206001928301818104948501949093039092029101808411610d975790505b50505050508361179d565b15610dff57610deb610de660ff831685611d48565b611721565b915080610df781611c81565b915050610d4e565b60008381526001602081815260408084206008018054938401815584529281902081830401805460ff878116601f9095166101000a8581029102199091161790558251868152908101919091527f30e553c39a39e89fd4a1b6ee20dc278a7a668071fd6c2673df5cb73820d059a3910160405180910390a1505050565b6000818152600160208190526040822001546060918167ffffffffffffffff811115610eaa57610eaa61191f565b604051908082528060200260200182016040528015610ed3578160200160208202803683370190505b50905060005b8281101561089f576000858152600160208190526040822001805483908110610f0457610f04611c39565b60009182526020808320909101548883526001825260408084206001600160a01b039092168085526007909201909252912054845191925090849084908110610f4f57610f4f611c39565b60209081029190910101525080610f6581611d05565b915050610ed9565b606060005b60208160ff16108015610fa65750828160ff1660208110610f9557610f95611c39565b1a60f81b6001600160f81b03191615155b15610fbd5780610fb581611c81565b915050610f72565b60008160ff1667ffffffffffffffff811115610fdb57610fdb61191f565b6040519080825280601f01601f191660200182016040528015611005576020820181803683370190505b509050600091505b60208260ff161080156110415750838260ff166020811061103057611030611c39565b1a60f81b6001600160f81b03191615155b1561109d57838260ff166020811061105b5761105b611c39565b1a60f81b818360ff168151811061107457611074611c39565b60200101906001600160f81b031916908160001a9053508161109581611c81565b92505061100d565b9392505050565b6002546110e95760405162461bcd60e51b81526020600482015260136024820152724e6f20617661696c61626c652067616d65732160681b6044820152606401610380565b600082600003611122575b6110fc611667565b6000818152600160205260409020549091506001600160a01b031633146110f457611125565b50815b6000811161116b5760405162461bcd60e51b815260206004820152601360248201527243686f73656e206964206e656761746976652160681b6044820152606401610380565b60008181526001602052604090206002810154600390910154106111c75760405162461bcd60e51b815260206004820152601360248201527247616d6520616c72656164792074616b656e2160681b6044820152606401610380565b600081815260016020526040902054336001600160a01b03909116036112425760405162461bcd60e51b815260206004820152602a60248201527f596f752063616e2774206a6f696e20612067616d65206372656174656420627960448201526920796f757273656c662160b01b6064820152608401610380565b60008181526001602052604090206006015482900361129a5760405162461bcd60e51b8152602060048201526014602482015273496e76616c6964206d65726b6c6520726f6f742160601b6044820152606401610380565b60005b600082815260016020819052604090912001548110156113615760008281526001602081905260408220908101805486936007909301929190859081106112e6576112e6611c39565b60009182526020808320909101546001600160a01b031683528201929092526040019020540361134f5760405162461bcd60e51b8152602060048201526014602482015273496e76616c6964206d65726b6c6520726f6f742160601b6044820152606401610380565b8061135981611d05565b91505061129d565b506000818152600160208181526040832080830180549384018155845290832090910180546001600160a01b031916331790558282526003018054916113a683611d05565b90915550506000818152600160205260408120600581015460049091018054919290916113d4908490611d48565b90915550506000818152600160208181526040808420338086526007820184528286208890559486905292825282546002840154600385015460049095015483516001600160a01b03909316835293820195909552908101939093526060830191909152608082015281907f66bacdfb07a49afa060b23ca1e16974d1919771fff2fd57717ab8857b0673b349060a00160405180910390a260008181526001602052604090206002810154600390910154036107a45761149381610c3f565b5060405181907f50ad08f58a27f2851d7e3a1b3a6a46b290f2ce677e99642d30ff639721e7779090600090a2505050565b600281815481106114d457600080fd5b600091825260209091200154905081565b8151600090815b8181101561154357836001600160a01b031685828151811061151057611510611c39565b60200260200101516001600160a01b0316036115315760019250505061154a565b8061153b81611d05565b9150506114ec565b5060009150505b92915050565b600080846040516020016115649190611c4f565b60408051601f198184030181529190528051602090910120905060025b845181101561165b57611595600285611d71565b6000036115ee57818582815181106115af576115af611c39565b60200260200101516040516020016115d1929190918252602082015260400190565b60405160208183030381529060405280519060200120915061163c565b84818151811061160057611600611c39565b602002602001015182604051602001611623929190918252602082015260400190565b6040516020818303038152906040528051906020012091505b611647600285611cf1565b93508061165381611d05565b915050611581565b50909414949350505050565b60025460009081036116795750600090565b600254600090611688906117f6565b90506002818154811061169d5761169d611c39565b906000526020600020015491505090565b6000805b6002548110156116f85782600282815481106116d0576116d0611c39565b9060005260206000200154036116e65792915050565b806116f081611d05565b9150506116b2565b5060025461154a906001611d48565b6000806000815461171790611d05565b9182905550919050565b600080424433856040516020016117639493929190938452602084019290925260601b6bffffffffffffffffffffffff19166040830152605482015260740190565b60408051601f1981840301815291905280516020909101209050600061178a604b83611d71565b611795906001611d48565b949350505050565b6000805b83518110156117ec578260ff168482815181106117c0576117c0611c39565b602002602001015160ff16036117da57600191505061154a565b806117e481611d05565b9150506117a1565b5060009392505050565b60008082116118475760405162461bcd60e51b815260206004820152601a60248201527f4d6178206d7573742062652067726561746572207468616e20300000000000006044820152606401610380565b600042443360405160200161188193929190928352602083019190915260601b6bffffffffffffffffffffffff1916604082015260540190565b60408051601f198184030181529190528051602090910120905061109d8382611d71565b8280548282559060005260206000209081019282156118fa579160200282015b828111156118fa57825182546001600160a01b0319166001600160a01b039091161782556020909201916001909101906118c5565b5061190692915061190a565b5090565b5b80821115611906576000815560010161190b565b634e487b7160e01b600052604160045260246000fd5b604051601f8201601f1916810167ffffffffffffffff8111828210171561195e5761195e61191f565b604052919050565b600067ffffffffffffffff8211156119805761198061191f565b5060051b60200190565b600080604080848603121561199e57600080fd5b8335925060208085013567ffffffffffffffff808211156119be57600080fd5b818701915087601f8301126119d257600080fd5b81356119e56119e082611966565b611935565b81815260059190911b8301840190848101908a831115611a0457600080fd5b8585015b83811015611a9057803585811115611a205760008081fd5b8601603f81018d13611a325760008081fd5b87810135611a426119e082611966565b81815260059190911b82018a0190898101908f831115611a625760008081fd5b928b01925b82841015611a805783358252928a0192908a0190611a67565b8652505050918601918601611a08565b50809750505050505050509250929050565b600060208284031215611ab457600080fd5b5035919050565b60006020808385031215611ace57600080fd5b823567ffffffffffffffff80821115611ae657600080fd5b818501915085601f830112611afa57600080fd5b813581811115611b0c57611b0c61191f565b611b1e601f8201601f19168501611935565b91508082528684828501011115611b3457600080fd5b8084840185840137600090820190930192909252509392505050565b600080600060608486031215611b6557600080fd5b505081359360208301359350604090920135919050565b6020808252825182820181905260009190848201906040850190845b81811015611bb457835183529284019291840191600101611b98565b50909695505050505050565b60005b83811015611bdb578181015183820152602001611bc3565b50506000910152565b6020815260008251806020840152611c03816040850160208701611bc0565b601f01601f19169190910160400192915050565b60008060408385031215611c2a57600080fd5b50508035926020909101359150565b634e487b7160e01b600052603260045260246000fd5b60008251611c61818460208701611bc0565b9190910192915050565b634e487b7160e01b600052601160045260246000fd5b600060ff821660ff8103611c9757611c97611c6b565b60010192915050565b6001600160a01b03831681526040810160028310611cce57634e487b7160e01b600052602160045260246000fd5b8260208301529392505050565b634e487b7160e01b600052601260045260246000fd5b600082611d0057611d00611cdb565b500490565b600060018201611d1757611d17611c6b565b5060010190565b8181038181111561154a5761154a611c6b565b808202811582820484141761154a5761154a611c6b565b8082018082111561154a5761154a611c6b565b634e487b7160e01b600052603160045260246000fd5b600082611d8057611d80611cdb565b50069056fea2646970667358221220d8776ccbf8e05d92597bf9a774436cdc0a82fd69907972904960aef8f3df052b64736f6c63430008130033",
    "sourcePath": "/home/leonardo/Documents/University/P2P/react-project/workspace/BingoEth/truffle/contracts/Bingo.sol",
    "compiler": {
        "name": "solc",
        "version": "0.8.19+commit.7dd6d404"
    },
    "functionHashes": {
        "bytes32ToString(bytes32)": "9201de55",
        "createGame(uint256,uint256,bytes32)": "46ac2b99",
        "distributePrizetoAll(uint256)": "0ecc2751",
        "elencoGiochiDisponibili(uint256)": "f0eb3df6",
        "extractNumber(uint256)": "75eae462",
        "gameId()": "d7c81b55",
        "gameList(uint256)": "c6cfd08e",
        "getInfoGame(uint256)": "44e8decd",
        "getJoinerMerkleRoots(uint256)": "8aa9c006",
        "joinGame(uint256,bytes32)": "ac952671",
        "remove(uint256)": "4cc82215",
        "removeFromGiochiDisponibili(uint256)": "99e15c77",
        "stringToUint(string)": "1bd95155",
        "submitCard(uint256,bytes32[][])": "08682d56"
    },
    "gasEstimates": {
        "creation": {
            "codeDepositCost": "1522200",
            "executionCost": "6595",
            "totalCost": "1528795"
        },
        "external": {
            "bytes32ToString(bytes32)": "infinite",
            "createGame(uint256,uint256,bytes32)": "infinite",
            "distributePrizetoAll(uint256)": "infinite",
            "elencoGiochiDisponibili(uint256)": "4652",
            "extractNumber(uint256)": "infinite",
            "gameId()": "2350",
            "gameList(uint256)": "17482",
            "getInfoGame(uint256)": "infinite",
            "getJoinerMerkleRoots(uint256)": "infinite",
            "joinGame(uint256,bytes32)": "infinite",
            "remove(uint256)": "infinite",
            "removeFromGiochiDisponibili(uint256)": "infinite",
            "stringToUint(string)": "infinite",
            "submitCard(uint256,bytes32[][])": "infinite"
        },
        "internal": {
            "contains(address[] memory,address)": "infinite",
            "findIndex(uint256)": "infinite",
            "getIDGame()": "24304",
            "getInfo(uint256)": "infinite",
            "getNewNumber(uint256)": "infinite",
            "getRandomGame()": "infinite",
            "getRandomNumber(uint256)": "infinite",
            "isExtracted(uint8[] memory,uint8)": "infinite",
            "remove(address[] memory,address)": "infinite",
            "verifyMerkleProof(bytes32,string memory,bytes32[] memory,uint256)": "infinite"
        }
    }
}