{
  "contractName": "Bingo",
  "abi": [
    {
      "inputs": [],
      "stateMutability": "nonpayable",
      "type": "constructor"
    },
    {
      "anonymous": false,
      "inputs": [
        {
          "indexed": false,
          "internalType": "address",
          "name": "_sender",
          "type": "address"
        },
        {
          "indexed": false,
          "internalType": "uint256",
          "name": "_amount",
          "type": "uint256"
        },
        {
          "indexed": true,
          "internalType": "uint256",
          "name": "_gameId",
          "type": "uint256"
        },
        {
          "indexed": false,
          "internalType": "uint256",
          "name": "_response",
          "type": "uint256"
        }
      ],
      "name": "AmountEthResponse",
      "type": "event"
    },
    {
      "anonymous": false,
      "inputs": [
        {
          "indexed": true,
          "internalType": "uint256",
          "name": "_gameId",
          "type": "uint256"
        },
        {
          "indexed": false,
          "internalType": "address",
          "name": "_address",
          "type": "address"
        },
        {
          "indexed": false,
          "internalType": "uint256",
          "name": "_row",
          "type": "uint256"
        },
        {
          "indexed": false,
          "internalType": "uint256",
          "name": "_col",
          "type": "uint256"
        }
      ],
      "name": "Checkvalue",
      "type": "event"
    },
    {
      "anonymous": false,
      "inputs": [
        {
          "indexed": true,
          "internalType": "uint256",
          "name": "_gameId",
          "type": "uint256"
        }
      ],
      "name": "GameCancelled",
      "type": "event"
    },
    {
      "anonymous": false,
      "inputs": [
        {
          "indexed": true,
          "internalType": "uint256",
          "name": "_gameId",
          "type": "uint256"
        }
      ],
      "name": "GameCreated",
      "type": "event"
    },
    {
      "anonymous": false,
      "inputs": [
        {
          "indexed": true,
          "internalType": "uint256",
          "name": "_gameId",
          "type": "uint256"
        },
        {
          "indexed": false,
          "internalType": "address",
          "name": "_winner",
          "type": "address"
        },
        {
          "indexed": false,
          "internalType": "address",
          "name": "_loser",
          "type": "address"
        },
        {
          "indexed": false,
          "internalType": "uint256",
          "name": "_reason",
          "type": "uint256"
        }
      ],
      "name": "GameEnded",
      "type": "event"
    },
    {
      "anonymous": false,
      "inputs": [
        {
          "indexed": true,
          "internalType": "uint256",
          "name": "_gameId",
          "type": "uint256"
        },
        {
          "indexed": false,
          "internalType": "address",
          "name": "_creator",
          "type": "address"
        },
        {
          "indexed": false,
          "internalType": "address",
          "name": "_joiner",
          "type": "address"
        },
        {
          "indexed": false,
          "internalType": "uint256",
          "name": "_maxjoiners",
          "type": "uint256"
        },
        {
          "indexed": false,
          "internalType": "uint256",
          "name": "_totalJoiners",
          "type": "uint256"
        },
        {
          "indexed": false,
          "internalType": "uint256",
          "name": "_ethAmount",
          "type": "uint256"
        }
      ],
      "name": "GameJoined",
      "type": "event"
    },
    {
      "anonymous": false,
      "inputs": [
        {
          "indexed": true,
          "internalType": "uint256",
          "name": "_gameId",
          "type": "uint256"
        }
      ],
      "name": "GameStarted",
      "type": "event"
    },
    {
      "anonymous": false,
      "inputs": [
        {
          "indexed": true,
          "internalType": "uint256",
          "name": "_gameId",
          "type": "uint256"
        },
        {
          "indexed": false,
          "internalType": "address",
          "name": "_accuser",
          "type": "address"
        }
      ],
      "name": "ResolveAccuse",
      "type": "event"
    },
    {
      "anonymous": false,
      "inputs": [
        {
          "indexed": false,
          "internalType": "string",
          "name": "myError",
          "type": "string"
        }
      ],
      "name": "outputerror",
      "type": "event"
    },
    {
      "inputs": [
        {
          "internalType": "uint256",
          "name": "",
          "type": "uint256"
        }
      ],
      "name": "elencoGiochiDisponibili",
      "outputs": [
        {
          "internalType": "uint256",
          "name": "",
          "type": "uint256"
        }
      ],
      "stateMutability": "view",
      "type": "function",
      "constant": true
    },
    {
      "inputs": [],
      "name": "gameId",
      "outputs": [
        {
          "internalType": "uint256",
          "name": "",
          "type": "uint256"
        }
      ],
      "stateMutability": "view",
      "type": "function",
      "constant": true
    },
    {
      "inputs": [
        {
          "internalType": "uint256",
          "name": "",
          "type": "uint256"
        }
      ],
      "name": "gameList",
      "outputs": [
        {
          "internalType": "address",
          "name": "creator",
          "type": "address"
        },
        {
          "internalType": "uint256",
          "name": "maxJoiners",
          "type": "uint256"
        },
        {
          "internalType": "uint256",
          "name": "totalJoiners",
          "type": "uint256"
        },
        {
          "internalType": "uint256",
          "name": "ethBalance",
          "type": "uint256"
        },
        {
          "internalType": "uint256",
          "name": "betAmount",
          "type": "uint256"
        },
        {
          "internalType": "bytes32",
          "name": "creatorMerkleRoot",
          "type": "bytes32"
        },
        {
          "internalType": "uint256",
          "name": "accusationTime",
          "type": "uint256"
        },
        {
          "internalType": "address",
          "name": "accuser",
          "type": "address"
        }
      ],
      "stateMutability": "view",
      "type": "function",
      "constant": true
    },
    {
      "inputs": [
        {
          "internalType": "uint256",
          "name": "_gameId",
          "type": "uint256"
        }
      ],
      "name": "getJoinerMerkleRoots",
      "outputs": [
        {
          "internalType": "bytes32[]",
          "name": "",
          "type": "bytes32[]"
        }
      ],
      "stateMutability": "view",
      "type": "function",
      "constant": true
    },
    {
      "inputs": [
        {
          "internalType": "uint256",
          "name": "_gameId",
          "type": "uint256"
        }
      ],
      "name": "distributePrizetoAll",
      "outputs": [],
      "stateMutability": "nonpayable",
      "type": "function"
    },
    {
      "inputs": [
        {
          "internalType": "uint256",
          "name": "_maxJoiners",
          "type": "uint256"
        },
        {
          "internalType": "uint256",
          "name": "_betAmount",
          "type": "uint256"
        }
      ],
      "name": "createGame",
      "outputs": [],
      "stateMutability": "payable",
      "type": "function",
      "payable": true
    },
    {
      "inputs": [
        {
          "internalType": "uint256",
          "name": "_gameId",
          "type": "uint256"
        }
      ],
      "name": "joinGame",
      "outputs": [],
      "stateMutability": "nonpayable",
      "type": "function"
    },
    {
      "inputs": [
        {
          "internalType": "uint256",
          "name": "_gameId",
          "type": "uint256"
        },
        {
          "internalType": "bool",
          "name": "_response",
          "type": "bool"
        }
      ],
      "name": "amountEthDecision",
      "outputs": [],
      "stateMutability": "payable",
      "type": "function",
      "payable": true
    },
    {
      "inputs": [
        {
          "internalType": "uint256",
          "name": "_gameId",
          "type": "uint256"
        },
        {
          "internalType": "bytes32",
          "name": "_merkleRoot",
          "type": "bytes32"
        }
      ],
      "name": "submitBoard",
      "outputs": [],
      "stateMutability": "nonpayable",
      "type": "function"
    }
  ],
  "bytecode": "0x60806040526000805534801561001457600080fd5b50611ca8806100246000396000f3fe6080604052600436106100865760003560e01c80638aa9c006116100595780638aa9c0061461017d578063c6cfd08e1461020d578063d7c81b55146102b9578063efaa55a0146102e4578063f0eb3df61461031f57610086565b80630328f6fb1461008b5780630ecc2751146100d057806360104cef1461010b578063685385f314610143575b600080fd5b34801561009757600080fd5b506100ce600480360360408110156100ae57600080fd5b81019080803590602001909291908035906020019092919050505061036e565b005b3480156100dc57600080fd5b50610109600480360360208110156100f357600080fd5b8101908080359060200190929190505050610806565b005b6101416004803603604081101561012157600080fd5b8101908080359060200190929190803590602001909291905050506109d8565b005b61017b6004803603604081101561015957600080fd5b8101908080359060200190929190803515159060200190929190505050610c87565b005b34801561018957600080fd5b506101b6600480360360208110156101a057600080fd5b81019080803590602001909291905050506111b6565b6040518080602001828103825283818151815260200191508051906020019060200280838360005b838110156101f95780820151818401526020810190506101de565b505050509050019250505060405180910390f35b34801561021957600080fd5b506102466004803603602081101561023057600080fd5b8101908080359060200190929190505050611301565b604051808973ffffffffffffffffffffffffffffffffffffffff1681526020018881526020018781526020018681526020018581526020018481526020018381526020018273ffffffffffffffffffffffffffffffffffffffff1681526020019850505050505050505060405180910390f35b3480156102c557600080fd5b506102ce611389565b6040518082815260200191505060405180910390f35b3480156102f057600080fd5b5061031d6004803603602081101561030757600080fd5b810190808035906020019092919050505061138f565b005b34801561032b57600080fd5b506103586004803603602081101561034257600080fd5b810190808035906020019092919050505061184b565b6040518082815260200191505060405180910390f35b600082116103e4576040517f08c379a00000000000000000000000000000000000000000000000000000000081526004018080602001828103825260148152602001807f47616d65206964206973206e656761746976652100000000000000000000000081525060200191505060405180910390fd5b600060016000848152602001908152602001600020905060003390508073ffffffffffffffffffffffffffffffffffffffff166001600086815260200190815260200160002060000160009054906101000a900473ffffffffffffffffffffffffffffffffffffffff1673ffffffffffffffffffffffffffffffffffffffff161480610510575061050f6001600086815260200190815260200160002060010180548060200260200160405190810160405280929190818152602001828054801561050457602002820191906000526020600020905b8160009054906101000a900473ffffffffffffffffffffffffffffffffffffffff1673ffffffffffffffffffffffffffffffffffffffff16815260200190600101908083116104ba575b50505050508261186c565b5b610582576040517f08c379a00000000000000000000000000000000000000000000000000000000081526004018080602001828103825260188152602001807f506c61796572206e6f7420696e20746861742067616d6521000000000000000081525060200191505060405180910390fd5b8073ffffffffffffffffffffffffffffffffffffffff168260000160009054906101000a900473ffffffffffffffffffffffffffffffffffffffff1673ffffffffffffffffffffffffffffffffffffffff161480156105e757506000801b8260060154145b806106e157506106916001600086815260200190815260200160002060010180548060200260200160405190810160405280929190818152602001828054801561068657602002820191906000526020600020905b8160009054906101000a900473ffffffffffffffffffffffffffffffffffffffff1673ffffffffffffffffffffffffffffffffffffffff168152602001906001019080831161063c575b50505050508261186c565b80156106e057506000801b8260070160008373ffffffffffffffffffffffffffffffffffffffff1673ffffffffffffffffffffffffffffffffffffffff16815260200190815260200160002054145b5b610753576040517f08c379a00000000000000000000000000000000000000000000000000000000081526004018080602001828103825260188152602001807f426f61726420616c7265616479207375626d697474656421000000000000000081525060200191505060405180910390fd5b8073ffffffffffffffffffffffffffffffffffffffff168260000160009054906101000a900473ffffffffffffffffffffffffffffffffffffffff1673ffffffffffffffffffffffffffffffffffffffff1614156107b957828260060181905550610800565b828260070160008373ffffffffffffffffffffffffffffffffffffffff1673ffffffffffffffffffffffffffffffffffffffff168152602001908152602001600020819055505b50505050565b60006001600083815260200190815260200160002090506000816001018054905082600401548161083357fe5b04905060005b826001018054905081101561090f57600083600101828154811061085957fe5b9060005260206000200160009054906101000a900473ffffffffffffffffffffffffffffffffffffffff1690503373ffffffffffffffffffffffffffffffffffffffff168173ffffffffffffffffffffffffffffffffffffffff1614610901578073ffffffffffffffffffffffffffffffffffffffff166108fc849081150290604051600060405180830381858888f193505050501580156108ff573d6000803e3d6000fd5b505b508080600101915050610839565b503373ffffffffffffffffffffffffffffffffffffffff168260000160009054906101000a900473ffffffffffffffffffffffffffffffffffffffff1673ffffffffffffffffffffffffffffffffffffffff16146109d3578160000160009054906101000a900473ffffffffffffffffffffffffffffffffffffffff1673ffffffffffffffffffffffffffffffffffffffff166108fc829081150290604051600060405180830381858888f193505050501580156109d1573d6000803e3d6000fd5b505b505050565b60008211610a31576040517f08c379a0000000000000000000000000000000000000000000000000000000008152600401808060200182810382526022815260200180611be16022913960400191505060405180910390fd5b60008111610a8a576040517f08c379a0000000000000000000000000000000000000000000000000000000008152600401808060200182810382526021815260200180611c2d6021913960400191505060405180910390fd5b6000610a946118ea565b90506000600160008381526020019081526020016000209050338160000160006101000a81548173ffffffffffffffffffffffffffffffffffffffff021916908373ffffffffffffffffffffffffffffffffffffffff160217905550600067ffffffffffffffff81118015610b0857600080fd5b50604051908082528060200260200182016040528015610b375781602001602082028036833780820191505090505b50816001019080519060200190610b4f929190611b39565b5083816002018190555060008160030181905550600081600401819055508281600501819055506000801b81600601819055506000816008018190555060008160090160006101000a81548173ffffffffffffffffffffffffffffffffffffffff021916908373ffffffffffffffffffffffffffffffffffffffff1602179055506000801b8160070160003373ffffffffffffffffffffffffffffffffffffffff1673ffffffffffffffffffffffffffffffffffffffff168152602001908152602001600020819055506002829080600181540180825580915050600190039060005260206000200160009091909190915055348160040160008282540192505081905550817fbd19c47e9925eb6f7be8bb1c13a841e0240aaeaf17f217e90022e9c8eb66877f60405160405180910390a250505050565b60008211610cfd576040517f08c379a00000000000000000000000000000000000000000000000000000000081526004018080602001828103825260148152602001807f47616d65206964206973206e656761746976652100000000000000000000000081525060200191505060405180910390fd5b60003390508073ffffffffffffffffffffffffffffffffffffffff166001600085815260200190815260200160002060000160009054906101000a900473ffffffffffffffffffffffffffffffffffffffff1673ffffffffffffffffffffffffffffffffffffffff161480610e125750610e1160016000858152602001908152602001600020600101805480602002602001604051908101604052809291908181526020018280548015610e0657602002820191906000526020600020905b8160009054906101000a900473ffffffffffffffffffffffffffffffffffffffff1673ffffffffffffffffffffffffffffffffffffffff1681526020019060010190808311610dbc575b50505050508261186c565b5b610e84576040517f08c379a00000000000000000000000000000000000000000000000000000000081526004018080602001828103825260188152602001807f506c61796572206e6f7420696e20746861742067616d6521000000000000000081525060200191505060405180910390fd5b8161108c578073ffffffffffffffffffffffffffffffffffffffff166001600085815260200190815260200160002060000160009054906101000a900473ffffffffffffffffffffffffffffffffffffffff1673ffffffffffffffffffffffffffffffffffffffff161415610f44576040517f08c379a0000000000000000000000000000000000000000000000000000000008152600401808060200182810382526025815260200180611c4e6025913960400191505060405180910390fd5b610fe860016000858152602001908152602001600020600101805480602002602001604051908101604052809291908181526020018280548015610fdd57602002820191906000526020600020905b8160009054906101000a900473ffffffffffffffffffffffffffffffffffffffff1673ffffffffffffffffffffffffffffffffffffffff1681526020019060010190808311610f93575b5050505050826118ff565b506002839080600181540180825580915050600190039060005260206000200160009091909190915055827f4cb66ab516bedeef3035e50502f6b3b1da5140fec06e41646bf41422c60c276b8260016000878152602001908152602001600020600501546000604051808473ffffffffffffffffffffffffffffffffffffffff168152602001838152602001828152602001935050505060405180910390a26111b1565b60016000848152602001908152602001600020600401543414611117576040517f08c379a00000000000000000000000000000000000000000000000000000000081526004018080602001828103825260148152602001807f45544820616d6f756e742069732077726f6e672100000000000000000000000081525060200191505060405180910390fd5b346001600085815260200190815260200160002060050160008282540192505081905550827f4cb66ab516bedeef3035e50502f6b3b1da5140fec06e41646bf41422c60c276b8260016000878152602001908152602001600020600401546001604051808473ffffffffffffffffffffffffffffffffffffffff168152602001838152602001828152602001935050505060405180910390a25b505050565b606060006001600084815260200190815260200160002060010180549050905060608167ffffffffffffffff811180156111ef57600080fd5b5060405190808252806020026020018201604052801561121e5781602001602082028036833780820191505090505b50905060005b828110156112f657600060016000878152602001908152602001600020600101828154811061124f57fe5b9060005260206000200160009054906101000a900473ffffffffffffffffffffffffffffffffffffffff1690506001600087815260200190815260200160002060070160008273ffffffffffffffffffffffffffffffffffffffff1673ffffffffffffffffffffffffffffffffffffffff168152602001908152602001600020548383815181106112dc57fe5b602002602001018181525050508080600101915050611224565b508092505050919050565b60016020528060005260406000206000915090508060000160009054906101000a900473ffffffffffffffffffffffffffffffffffffffff16908060020154908060030154908060040154908060050154908060060154908060080154908060090160009054906101000a900473ffffffffffffffffffffffffffffffffffffffff16905088565b60005481565b60006002805490501161140a576040517f08c379a00000000000000000000000000000000000000000000000000000000081526004018080602001828103825260138152602001807f4e6f20617661696c61626c652067616d6573210000000000000000000000000081525060200191505060405180910390fd5b6000808214156114235761141c6119df565b90506114a2565b81905061142f81611a32565b6114a1576040517f08c379a00000000000000000000000000000000000000000000000000000000081526004018080602001828103825260198152602001807f546869732067616d6520646f6573206e6f74206578697374210000000000000081525060200191505060405180910390fd5b5b60008111611518576040517f08c379a00000000000000000000000000000000000000000000000000000000081526004018080602001828103825260138152602001807f43686f73656e206964206e65676174697665210000000000000000000000000081525060200191505060405180910390fd5b60016000828152602001908152602001600020600201546001600083815260200190815260200160002060030154106115b9576040517f08c379a00000000000000000000000000000000000000000000000000000000081526004018080602001828103825260138152602001807f47616d6520616c72656164792074616b656e210000000000000000000000000081525060200191505060405180910390fd5b3373ffffffffffffffffffffffffffffffffffffffff166001600083815260200190815260200160002060000160009054906101000a900473ffffffffffffffffffffffffffffffffffffffff1673ffffffffffffffffffffffffffffffffffffffff161415611674576040517f08c379a000000000000000000000000000000000000000000000000000000000815260040180806020018281038252602a815260200180611c03602a913960400191505060405180910390fd5b60016000828152602001908152602001600020600101339080600181540180825580915050600190039060005260206000200160009091909190916101000a81548173ffffffffffffffffffffffffffffffffffffffff021916908373ffffffffffffffffffffffffffffffffffffffff160217905550600160008281526020019081526020016000206003016000815480929190600101919050555060016000828152602001908152602001600020600501546001600083815260200190815260200160002060040160008282540192505081905550807f66bacdfb07a49afa060b23ca1e16974d1919771fff2fd57717ab8857b0673b346001600084815260200190815260200160002060000160009054906101000a900473ffffffffffffffffffffffffffffffffffffffff1633600160008681526020019081526020016000206002015460016000878152602001908152602001600020600301546001600088815260200190815260200160002060040154604051808673ffffffffffffffffffffffffffffffffffffffff1681526020018573ffffffffffffffffffffffffffffffffffffffff1681526020018481526020018381526020018281526020019550505050505060405180910390a25050565b6002818154811061185857fe5b906000526020600020016000915090505481565b6000808351905060005b818110156118dd578373ffffffffffffffffffffffffffffffffffffffff168582815181106118a157fe5b602002602001015173ffffffffffffffffffffffffffffffffffffffff1614156118d0576001925050506118e4565b8080600101915050611876565b5060009150505b92915050565b60008060008154600101919050819055905090565b606060008351905060005b818110156119d3578373ffffffffffffffffffffffffffffffffffffffff1685828151811061193557fe5b602002602001015173ffffffffffffffffffffffffffffffffffffffff1614156119c65784600183038151811061196857fe5b602002602001015185828151811061197c57fe5b602002602001019073ffffffffffffffffffffffffffffffffffffffff16908173ffffffffffffffffffffffffffffffffffffffff168152505060018203855284925050506119d9565b808060010191505061190a565b50839150505b92915050565b60008060028054905014156119f75760009050611a2f565b6000611a07600280549050611abf565b905060028181548110611a1657fe5b90600052602060002001549150611a2c82611a32565b50505b90565b600080611a3e83611add565b905060028054905081108015611a55575060008110155b15611ab4576000600160008581526020019081526020016000209050806002015481600301541115611ab2576020600160025403026020600201015480602084026020600201015560016002540360025550600192505050611aba565b505b60009150505b919050565b600080423380822092505050828181611ad457fe5b06915050919050565b600080600090505b600280549050811015611b27578260028281548110611b0057fe5b90600052602060002001541415611b1a5780915050611b34565b8080600101915050611ae5565b5060016002805490500190505b919050565b828054828255906000526020600020908101928215611bb2579160200282015b82811115611bb15782518260006101000a81548173ffffffffffffffffffffffffffffffffffffffff021916908373ffffffffffffffffffffffffffffffffffffffff16021790555091602001919060010190611b59565b5b509050611bbf9190611bc3565b5090565b5b80821115611bdc576000816000905550600101611bc4565b509056fe4d6178206a6f696e657273206d7573742062652067726561746572207468616e2030596f752063616e2774206a6f696e20612067616d65206372656174656420627920796f757273656c662142657420616d6f756e74206d7573742062652067726561746572207468616e203043726561746f722063616e6e6f7420726566757365207468656972206f776e2067616d6521a2646970667358221220568bdda58c93edec083a8d26c042dfa131d73dd6ebf8160727feb38fca89af5a64736f6c63430007030033",
  "immutableReferences": {},
  "source": "// SPDX-License-Identifier: MIT \npragma solidity >=0.4.22 <0.9.0;\n\ncontract Bingo {\n/**************************************************************************** */\n/**           Struct containing all the info for a game                      **/\n/**************************************************************************** */\n    struct info {\n    address creator;\n    address[] joiners;\n    uint maxJoiners;\n    uint totalJoiners;\n    uint ethBalance;\n    uint betAmount;\n    bytes32 creatorMerkleRoot;\n    mapping(address => bytes32) joinerMerkleRoots; // Updated to a mapping\n    uint accusationTime;\n    address accuser;\n}\n/************************************************ */\n/**            Global variables                  **/\n/************************************************ */\n    uint256 public gameId = 0; // Game ID counter\n    mapping(uint256 => info) public gameList; // Mapping of game ID to game info\n    uint256[] public elencoGiochiDisponibili;    // List of available game IDs\n\n\n\n/***************************************** */\n/**            Events                     **/\n/***************************************** */\n    event outputerror(string myError); // event: error output\n\n    event GameCreated(uint256 indexed _gameId); //  Event to log game creation\n\n    //TODO: implementa piu persone\n    event GameJoined(\n        uint256 indexed _gameId,\n        address _creator,\n        address _joiner, \n        uint256 _maxjoiners,\n        uint256 _totalJoiners,\n        uint256 _ethAmount\n    );\n    event Checkvalue(\n        uint256 indexed _gameId,\n        address _address,\n        uint256 _row,\n        uint256 _col\n    );\n    event GameStarted(\n        uint256 indexed _gameId\n            \n    );\n    event GameCancelled(uint256 indexed _gameId);\n    //event to communicate the end of a game to all the joiners and the creator, loser is used if reason is that he cheated\n    event GameEnded(\n        uint256 indexed _gameId,\n        address _winner,\n        address _loser,\n        uint256 _reason\n        );\n\n    event ResolveAccuse(\n        uint256 indexed _gameId,\n        address _accuser\n    );\n\n    event AmountEthResponse(\n        address _sender,\n        uint256 _amount,\n        uint256 indexed _gameId,\n        uint256 _response\n    );\n\n    constructor() {\n        \n    }\n    \n    /*********************************************** */\n    /**               GETTERS                       **/\n    /*********************************************** */\n    function getIDGame() private returns(uint256 ) {\n        return ++gameId;\n    }\n\n    function getInfo(uint256 _gameId) private view returns (info storage) {\n        // Restituisce la struttura dati \"info\" associata al gameId specificato\n        return gameList[_gameId];\n    }\n\n\n    function getRandomNumber(uint256 max) private view returns (uint256) {\n        uint256 seed;\n        assembly {\n            // Ottieni il timestamp del blocco\n            let timestampp := timestamp()\n            // Ottieni l'indirizzo del mittente del messaggio\n            let sender := caller()\n            // Calcola l'hash keccak256\n            seed := keccak256(timestampp,sender)\n        }\n        return seed % max;\n    }\n\n    function getRandomGame() private returns (uint256 idGiocoCasuale) {\n        // Verifica se ci sono giochi disponibili\n        if (elencoGiochiDisponibili.length == 0) {\n            return 0;\n        }\n\n        uint256 indiceCasuale = getRandomNumber(elencoGiochiDisponibili.length);\n        idGiocoCasuale = elencoGiochiDisponibili[indiceCasuale];// Ottiene l'ID del gioco corrispondente all'indice casuale\n\n        \n        removeFromGameList(idGiocoCasuale);// Rimuove il gioco dalla lista degli ID disponibili se il massimo num di giocatori e' stato superato\n        return idGiocoCasuale;\n    }\n\n    function getJoinerMerkleRoots(uint256 _gameId) public view returns (bytes32[] memory) {\n        uint256 joinerCount = gameList[_gameId].joiners.length;\n        bytes32[] memory merkleRoots = new bytes32[](joinerCount);        \n        for (uint256 i = 0; i < joinerCount; i++) {\n            address joiner = gameList[_gameId].joiners[i];\n            merkleRoots[i] = gameList[_gameId].joinerMerkleRoots[joiner];\n        }\n        return merkleRoots;\n    }\n\n/************************************************ */\n/**            Utility Functions                 **/\n/************************************************ */\n    function verifyMerkleProof(\n        bytes32 _root,\n        uint256[] memory _leafData,\n        bytes32[] memory _proof\n    ) internal pure returns (bool) {\n        bytes32 computedHash = keccak256(abi.encodePacked(_leafData[0]));\n        for (uint256 i = 0; i < _proof.length; i++) {\n            bytes32 proofElement = _proof[i];\n            if (_leafData[i++] < uint256(computedHash)) {\n                computedHash = keccak256(abi.encodePacked(proofElement, computedHash));\n            } else {\n                computedHash = keccak256(abi.encodePacked(computedHash, proofElement));\n            }\n        }\n        return computedHash == _root;\n    }\n\n\n    function removeFromGameList(uint256 _gameId) private returns (bool) {\n        // Trova l'indice dell'elemento da rimuovere\n        uint256 index = findIndex(_gameId);\n\n        // Verifica se l'elemento  stato trovato e se il numero totale di partecipanti supera il limite\n        if (index < elencoGiochiDisponibili.length && index >= 0) {\n            info storage gameInfo = gameList[_gameId];\n            if (gameInfo.totalJoiners > gameInfo.maxJoiners) {\n                assembly {\n                    // Carica l'ultimo elemento dell'array\n                    let lastElement := sload(add(add(elencoGiochiDisponibili.slot, 0x20), mul(sub(sload(elencoGiochiDisponibili.slot), 1), 0x20)))\n                    // Sostituisci l'elemento da rimuovere con l'ultimo elemento\n                    sstore(add(add(elencoGiochiDisponibili.slot, 0x20), mul(index, 0x20)), lastElement)\n                    // Riduci la lunghezza dell'array\n                    sstore(elencoGiochiDisponibili.slot, sub(sload(elencoGiochiDisponibili.slot), 1))\n                }\n                return true;\n            }\n        }\n        return false;\n    }\n\n    // Trova l'indice dell'elemento specificato nell'array elencoGiochiDisponibili\n    function findIndex(uint256 _gameId) private view returns (uint256) {\n        for (uint256 i = 0; i < elencoGiochiDisponibili.length; i++) {\n            if (elencoGiochiDisponibili[i] == _gameId) {\n                return i;\n            }\n        }\n        // Se l'elemento non  stato trovato, restituisci una posizione negativa\n        return elencoGiochiDisponibili.length+1;\n    }\n\n    function distributePrizetoAll(uint256 _gameId) public {\n        info storage game = gameList[_gameId];\n        uint256 betAmountPerPlayer = game.ethBalance /game.joiners.length;\n        for (uint256 i = 0; i < game.joiners.length; i++) {\n            address player = game.joiners[i];\n            if (player != msg.sender) {\n                payable(player).transfer(betAmountPerPlayer);\n            }\n        }\n        if (game.creator != msg.sender) {\n            payable(game.creator).transfer(betAmountPerPlayer);\n        }\n    }\n    //returns true if the element is in the array\n    function contains(address[] memory array, address element) internal pure returns (bool) {\n        uint256 length = array.length;\n        for (uint256 i = 0; i < length; i++) {\n            if (array[i] == element) {\n                return true;\n            }\n        }\n        return false;\n    }\n\n//remove an address from an array\nfunction remove(address[] memory array, address element) internal pure returns (address[] memory) {\n        uint256 length = array.length;\n        for (uint256 i = 0; i < length; i++) {\n            if (array[i] == element) {\n                array[i] = array[length - 1];\n                assembly {\n                    mstore(array, sub(length, 1))\n                }\n                return array;\n            }\n        }\n        return array;\n    }\n    /**************************************************************** */\n    /**       Functions to handle main logic of game                 **/\n    /**************************************************************** */\n\n    function createGame(uint _maxJoiners, uint _betAmount) public payable {\n        require(_maxJoiners > 0, \"Max joiners must be greater than 0\");\n        require(_betAmount > 0, \"Bet amount must be greater than 0\");\n\n        uint256 gameID = getIDGame();\n        info storage newGame = gameList[gameID];\n        newGame.creator = msg.sender;\n        newGame.joiners = new address[](0);\n        newGame.maxJoiners = _maxJoiners;\n        newGame.totalJoiners = 0;\n        newGame.ethBalance = 0;\n        newGame.betAmount = _betAmount;\n        newGame.creatorMerkleRoot = 0;\n        newGame.accusationTime = 0;\n        newGame.accuser = address(0);\n        \n        // Initialize the creator's merkle root mapping\n        newGame.joinerMerkleRoots[msg.sender] = 0;\n\n        elencoGiochiDisponibili.push(gameID);\n        newGame.ethBalance +=  msg.value;\n\n        emit GameCreated(gameID);\n    }\n\n\nfunction joinGame(uint256 _gameId) public {\n    require(elencoGiochiDisponibili.length > 0, \"No available games!\");\n    uint256 chosenGameId;\n    if (_gameId == 0) {\n        chosenGameId = getRandomGame();\n    } else {\n        chosenGameId = _gameId;\n        require(removeFromGameList(chosenGameId), \"This game does not exist!\");\n    }\n\n    require(chosenGameId > 0, \"Chosen id negative!\");\n    require(gameList[chosenGameId].totalJoiners < gameList[chosenGameId].maxJoiners, \"Game already taken!\");        require(gameList[chosenGameId].creator != msg.sender, \"You can't join a game created by yourself!\");\n\n    gameList[chosenGameId].joiners.push(msg.sender);\n    gameList[chosenGameId].totalJoiners++;\n    gameList[chosenGameId].ethBalance += gameList[chosenGameId].betAmount;\n\n    emit GameJoined( \n            chosenGameId,\n            gameList[chosenGameId].creator,\n            msg.sender,\n            gameList[chosenGameId].maxJoiners,\n            gameList[chosenGameId].totalJoiners,\n            gameList[chosenGameId].ethBalance\n    );\n}    \n\nfunction amountEthDecision(uint256 _gameId, bool _response) public payable {\n    require(_gameId > 0, \"Game id is negative!\");\n    address sender = msg.sender;        \n    require(gameList[_gameId].creator == sender || contains(gameList[_gameId].joiners, sender),\n            \"Player not in that game!\"\n    );\n\n    if (!_response) {\n        require(gameList[_gameId].creator != sender, \"Creator cannot refuse their own game!\");\n        remove(gameList[_gameId].joiners,sender);\n        elencoGiochiDisponibili.push(_gameId);\n            //emith the amount eth refused\n        emit AmountEthResponse(sender, gameList[_gameId].betAmount, _gameId, 0);\n        } else {\n            require(msg.value == gameList[_gameId].ethBalance, \"ETH amount is wrong!\");\n            gameList[_gameId].betAmount += msg.value;\n            //emit the amount eth accepted\n            emit AmountEthResponse(sender, gameList[_gameId].ethBalance, _gameId, 1);\n        }\n    }\n\n    function submitBoard(uint256 _gameId, bytes32 _merkleRoot) public {\n        require(_gameId > 0, \"Game id is negative!\");\n        info storage game = gameList[_gameId];\n        address sender = msg.sender;\n        require(\n            gameList[_gameId].creator == sender || contains(gameList[_gameId].joiners, sender),\n            \"Player not in that game!\"\n        );\n        require(\n            (game.creator == sender && game.creatorMerkleRoot == 0) ||\n            (contains(gameList[_gameId].joiners, sender) && game.joinerMerkleRoots[sender] == 0),\n            \"Board already submitted!\"\n        );\n        if (game.creator == sender) {\n            game.creatorMerkleRoot = _merkleRoot;\n        } else {\n            game.joinerMerkleRoots[sender] = _merkleRoot;\n        }\n    }\n    \n\n}",
  "sourcePath": "/home/leonardo/primo_semestre/lezioni_secondo_semestre/P2P/P2P_Project/contracts/Bingo.sol",
  "compiler": {
    "name": "solc",
    "version": "0.7.3+commit.9bfce1f6.Emscripten.clang"
  },
  "schemaVersion": "3.4.16",
  "updatedAt": "2024-05-09T17:54:02.194Z",
  "networkType": "ethereum",
  "devdoc": {
    "kind": "dev",
    "methods": {},
    "version": 1
  },
  "userdoc": {
    "events": {
      "outputerror(string)": {
        "notice": "Events                     *"
      }
    },
    "kind": "user",
    "methods": {
      "createGame(uint256,uint256)": {
        "notice": "Functions to handle main logic of game                 *"
      },
      "gameId()": {
        "notice": "Global variables                  *"
      }
    },
    "version": 1
  }
}