{
  "contractName": "Bingo",
  "abi": [
    {
      "inputs": [],
      "stateMutability": "nonpayable",
      "type": "constructor"
    },
    {
      "inputs": [
        {
          "internalType": "string",
          "name": "myError",
          "type": "string"
        }
      ],
      "name": "OutputError",
      "type": "error"
    },
    {
      "anonymous": false,
      "inputs": [
        {
          "indexed": false,
          "internalType": "address",
          "name": "_sender",
          "type": "address"
        },
        {
          "indexed": false,
          "internalType": "uint256",
          "name": "_amount",
          "type": "uint256"
        },
        {
          "indexed": true,
          "internalType": "uint256",
          "name": "_gameId",
          "type": "uint256"
        },
        {
          "indexed": false,
          "internalType": "uint256",
          "name": "_response",
          "type": "uint256"
        }
      ],
      "name": "AmountEthResponse",
      "type": "event"
    },
    {
      "anonymous": false,
      "inputs": [
        {
          "indexed": true,
          "internalType": "uint256",
          "name": "_gameId",
          "type": "uint256"
        }
      ],
      "name": "GameCancelled",
      "type": "event"
    },
    {
      "anonymous": false,
      "inputs": [
        {
          "indexed": true,
          "internalType": "uint256",
          "name": "_gameId",
          "type": "uint256"
        }
      ],
      "name": "GameCreated",
      "type": "event"
    },
    {
      "anonymous": false,
      "inputs": [
        {
          "indexed": true,
          "internalType": "uint256",
          "name": "_gameId",
          "type": "uint256"
        },
        {
          "indexed": false,
          "internalType": "address",
          "name": "_winner",
          "type": "address"
        },
        {
          "indexed": false,
          "internalType": "address",
          "name": "_loser",
          "type": "address"
        },
        {
          "indexed": false,
          "internalType": "uint256",
          "name": "_reason",
          "type": "uint256"
        }
      ],
      "name": "GameEnded",
      "type": "event"
    },
    {
      "anonymous": false,
      "inputs": [
        {
          "indexed": true,
          "internalType": "uint256",
          "name": "_gameId",
          "type": "uint256"
        },
        {
          "indexed": false,
          "internalType": "address",
          "name": "_winner",
          "type": "address"
        }
      ],
      "name": "GameEnded",
      "type": "event"
    },
    {
      "anonymous": false,
      "inputs": [
        {
          "indexed": true,
          "internalType": "uint256",
          "name": "_gameId",
          "type": "uint256"
        },
        {
          "indexed": false,
          "internalType": "address",
          "name": "_creator",
          "type": "address"
        },
        {
          "indexed": false,
          "internalType": "address",
          "name": "_joiner",
          "type": "address"
        },
        {
          "indexed": false,
          "internalType": "uint256",
          "name": "_maxjoiners",
          "type": "uint256"
        },
        {
          "indexed": false,
          "internalType": "uint256",
          "name": "_totalJoiners",
          "type": "uint256"
        },
        {
          "indexed": false,
          "internalType": "uint256",
          "name": "_ethAmount",
          "type": "uint256"
        }
      ],
      "name": "GameJoined",
      "type": "event"
    },
    {
      "anonymous": false,
      "inputs": [
        {
          "indexed": true,
          "internalType": "uint256",
          "name": "_gameId",
          "type": "uint256"
        }
      ],
      "name": "GameStarted",
      "type": "event"
    },
    {
      "anonymous": false,
      "inputs": [
        {
          "indexed": true,
          "internalType": "uint256",
          "name": "_gameId",
          "type": "uint256"
        },
        {
          "indexed": false,
          "internalType": "address",
          "name": "_accuser",
          "type": "address"
        }
      ],
      "name": "ResolveAccuse",
      "type": "event"
    },
    {
      "inputs": [
        {
          "internalType": "uint256",
          "name": "",
          "type": "uint256"
        }
      ],
      "name": "elencoGiochiDisponibili",
      "outputs": [
        {
          "internalType": "uint256",
          "name": "",
          "type": "uint256"
        }
      ],
      "stateMutability": "view",
      "type": "function"
    },
    {
      "inputs": [],
      "name": "gameId",
      "outputs": [
        {
          "internalType": "uint256",
          "name": "",
          "type": "uint256"
        }
      ],
      "stateMutability": "view",
      "type": "function"
    },
    {
      "inputs": [
        {
          "internalType": "uint256",
          "name": "",
          "type": "uint256"
        }
      ],
      "name": "gameList",
      "outputs": [
        {
          "internalType": "address",
          "name": "creator",
          "type": "address"
        },
        {
          "internalType": "uint256",
          "name": "maxJoiners",
          "type": "uint256"
        },
        {
          "internalType": "uint256",
          "name": "totalJoiners",
          "type": "uint256"
        },
        {
          "internalType": "uint256",
          "name": "ethBalance",
          "type": "uint256"
        },
        {
          "internalType": "uint256",
          "name": "betAmount",
          "type": "uint256"
        },
        {
          "internalType": "bytes32",
          "name": "creatorMerkleRoot",
          "type": "bytes32"
        },
        {
          "internalType": "bytes32",
          "name": "joinerMerkleRoots",
          "type": "bytes32"
        },
        {
          "internalType": "uint256",
          "name": "accusationTime",
          "type": "uint256"
        },
        {
          "internalType": "address",
          "name": "accuser",
          "type": "address"
        }
      ],
      "stateMutability": "view",
      "type": "function"
    },
    {
      "inputs": [
        {
          "internalType": "uint256",
          "name": "_maxJoiners",
          "type": "uint256"
        },
        {
          "internalType": "uint256",
          "name": "_betAmount",
          "type": "uint256"
        }
      ],
      "name": "createGame",
      "outputs": [],
      "stateMutability": "payable",
      "type": "function"
    },
    {
      "inputs": [
        {
          "internalType": "uint256",
          "name": "_gameId",
          "type": "uint256"
        }
      ],
      "name": "joinGame",
      "outputs": [],
      "stateMutability": "nonpayable",
      "type": "function"
    },
    {
      "inputs": [
        {
          "internalType": "uint256",
          "name": "_gameId",
          "type": "uint256"
        },
        {
          "internalType": "bool",
          "name": "_response",
          "type": "bool"
        }
      ],
      "name": "amountEthDecision",
      "outputs": [],
      "stateMutability": "payable",
      "type": "function"
    },
    {
      "inputs": [
        {
          "internalType": "uint256",
          "name": "_gameId",
          "type": "uint256"
        },
        {
          "internalType": "bytes32",
          "name": "_merkleRoot",
          "type": "bytes32"
        }
      ],
      "name": "submitBoard",
      "outputs": [],
      "stateMutability": "nonpayable",
      "type": "function"
    }
  ],
  "bytecode": "0x60806040525f80553480156011575f80fd5b506120d88061001f5f395ff3fe60806040526004361061006f575f3560e01c8063c6cfd08e1161004d578063c6cfd08e146100d3578063d7c81b5514610117578063efaa55a014610141578063f0eb3df6146101695761006f565b80630328f6fb1461007357806360104cef1461009b578063685385f3146100b7575b5f80fd5b34801561007e575f80fd5b5061009960048036038101906100949190611638565b6101a5565b005b6100b560048036038101906100b09190611676565b6106d0565b005b6100d160048036038101906100cc91906116e9565b6109fa565b005b3480156100de575f80fd5b506100f960048036038101906100f49190611727565b610e1d565b60405161010e999897969594939291906117af565b60405180910390f35b348015610122575f80fd5b5061012b610ea5565b604051610138919061183a565b60405180910390f35b34801561014c575f80fd5b5061016760048036038101906101629190611727565b610eaa565b005b348015610174575f80fd5b5061018f600480360381019061018a9190611727565b6111ed565b60405161019c919061183a565b60405180910390f35b5f82116101e7576040517f08c379a00000000000000000000000000000000000000000000000000000000081526004016101de906118ad565b60405180910390fd5b5f60015f8481526020019081526020015f20604051806101400160405290815f82015f9054906101000a900473ffffffffffffffffffffffffffffffffffffffff1673ffffffffffffffffffffffffffffffffffffffff1673ffffffffffffffffffffffffffffffffffffffff168152602001600182018054806020026020016040519081016040528092919081815260200182805480156102db57602002820191905f5260205f20905b815f9054906101000a900473ffffffffffffffffffffffffffffffffffffffff1673ffffffffffffffffffffffffffffffffffffffff1681526020019060010190808311610292575b5050505050815260200160028201548152602001600382015481526020016004820154815260200160058201548152602001600682015481526020016007820154815260200160088201548152602001600982015f9054906101000a900473ffffffffffffffffffffffffffffffffffffffff1673ffffffffffffffffffffffffffffffffffffffff1673ffffffffffffffffffffffffffffffffffffffff168152505090505f3390508073ffffffffffffffffffffffffffffffffffffffff1660015f8681526020019081526020015f205f015f9054906101000a900473ffffffffffffffffffffffffffffffffffffffff1673ffffffffffffffffffffffffffffffffffffffff16148061048c575061048b60015f8681526020019081526020015f2060010180548060200260200160405190810160405280929190818152602001828054801561048057602002820191905f5260205f20905b815f9054906101000a900473ffffffffffffffffffffffffffffffffffffffff1673ffffffffffffffffffffffffffffffffffffffff1681526020019060010190808311610437575b50505050508261120d565b5b6104cb576040517f08c379a00000000000000000000000000000000000000000000000000000000081526004016104c290611915565b60405180910390fd5b8073ffffffffffffffffffffffffffffffffffffffff16825f015173ffffffffffffffffffffffffffffffffffffffff1614801561050e57505f801b8260c00151145b806105c557506105b360015f8681526020019081526020015f206001018054806020026020016040519081016040528092919081815260200182805480156105a857602002820191905f5260205f20905b815f9054906101000a900473ffffffffffffffffffffffffffffffffffffffff1673ffffffffffffffffffffffffffffffffffffffff168152602001906001019080831161055f575b50505050508261120d565b80156105c457505f801b8260e00151145b5b610604576040517f08c379a00000000000000000000000000000000000000000000000000000000081526004016105fb9061197d565b60405180910390fd5b8073ffffffffffffffffffffffffffffffffffffffff16825f015173ffffffffffffffffffffffffffffffffffffffff160361064957828260c0018181525050610654565b828260e00181815250505b8073ffffffffffffffffffffffffffffffffffffffff16825f015173ffffffffffffffffffffffffffffffffffffffff16036106ac578160c0015160015f8681526020019081526020015f20600601819055506106ca565b8160e0015160015f8681526020019081526020015f20600701819055505b50505050565b5f8211610712576040517f08c379a000000000000000000000000000000000000000000000000000000000815260040161070990611a0b565b60405180910390fd5b5f8111610754576040517f08c379a000000000000000000000000000000000000000000000000000000000815260040161074b90611a99565b60405180910390fd5b5f61075d611247565b90506107676114b0565b33815f019073ffffffffffffffffffffffffffffffffffffffff16908173ffffffffffffffffffffffffffffffffffffffff16815250505f67ffffffffffffffff8111156107b8576107b7611ab7565b5b6040519080825280602002602001820160405280156107e65781602001602082028036833780820191505090505b508160200181905250838160400181815250505f8160600181815250505f816080018181525050828160a00181815250505f801b8160c00181815250505f801b8160e00181815250505f816101000181815250505f81610120019073ffffffffffffffffffffffffffffffffffffffff16908173ffffffffffffffffffffffffffffffffffffffff16815250508060015f8481526020019081526020015f205f820151815f015f6101000a81548173ffffffffffffffffffffffffffffffffffffffff021916908373ffffffffffffffffffffffffffffffffffffffff16021790555060208201518160010190805190602001906108e592919061152c565b5060408201518160020155606082015181600301556080820151816004015560a0820151816005015560c0820151816006015560e082015181600701556101008201518160080155610120820151816009015f6101000a81548173ffffffffffffffffffffffffffffffffffffffff021916908373ffffffffffffffffffffffffffffffffffffffff160217905550905050600282908060018154018082558091505060019003905f5260205f20015f90919091909150553460015f8481526020019081526020015f206004015f8282546109c09190611b11565b92505081905550817fbd19c47e9925eb6f7be8bb1c13a841e0240aaeaf17f217e90022e9c8eb66877f60405160405180910390a250505050565b5f8211610a3c576040517f08c379a0000000000000000000000000000000000000000000000000000000008152600401610a33906118ad565b60405180910390fd5b5f3390508073ffffffffffffffffffffffffffffffffffffffff1660015f8581526020019081526020015f205f015f9054906101000a900473ffffffffffffffffffffffffffffffffffffffff1673ffffffffffffffffffffffffffffffffffffffff161480610b475750610b4660015f8581526020019081526020015f20600101805480602002602001604051908101604052809291908181526020018280548015610b3b57602002820191905f5260205f20905b815f9054906101000a900473ffffffffffffffffffffffffffffffffffffffff1673ffffffffffffffffffffffffffffffffffffffff1681526020019060010190808311610af2575b50505050508261120d565b5b610b86576040517f08c379a0000000000000000000000000000000000000000000000000000000008152600401610b7d90611915565b60405180910390fd5b81610d46578073ffffffffffffffffffffffffffffffffffffffff1660015f8581526020019081526020015f205f015f9054906101000a900473ffffffffffffffffffffffffffffffffffffffff1673ffffffffffffffffffffffffffffffffffffffff1603610c2b576040517f08c379a0000000000000000000000000000000000000000000000000000000008152600401610c2290611bb4565b60405180910390fd5b610cca60015f8581526020019081526020015f20600101805480602002602001604051908101604052809291908181526020018280548015610cbf57602002820191905f5260205f20905b815f9054906101000a900473ffffffffffffffffffffffffffffffffffffffff1673ffffffffffffffffffffffffffffffffffffffff1681526020019060010190808311610c76575b505050505082611260565b50600283908060018154018082558091505060019003905f5260205f20015f9091909190915055827f4cb66ab516bedeef3035e50502f6b3b1da5140fec06e41646bf41422c60c276b8260015f8781526020019081526020015f20600501545f604051610d3993929190611c14565b60405180910390a2610e18565b60015f8481526020019081526020015f20600401543414610d9c576040517f08c379a0000000000000000000000000000000000000000000000000000000008152600401610d9390611c93565b60405180910390fd5b3460015f8581526020019081526020015f206005015f828254610dbf9190611b11565b92505081905550827f4cb66ab516bedeef3035e50502f6b3b1da5140fec06e41646bf41422c60c276b8260015f8781526020019081526020015f20600401546001604051610e0f93929190611cea565b60405180910390a25b505050565b6001602052805f5260405f205f91509050805f015f9054906101000a900473ffffffffffffffffffffffffffffffffffffffff1690806002015490806003015490806004015490806005015490806006015490806007015490806008015490806009015f9054906101000a900473ffffffffffffffffffffffffffffffffffffffff16905089565b5f5481565b5f60028054905011610ef1576040517f08c379a0000000000000000000000000000000000000000000000000000000008152600401610ee890611d69565b60405180910390fd5b5f808203610f0857610f0161135b565b9050610f54565b819050610f14816113af565b610f53576040517f08c379a0000000000000000000000000000000000000000000000000000000008152600401610f4a90611dd1565b60405180910390fd5b5b5f8111610f96576040517f08c379a0000000000000000000000000000000000000000000000000000000008152600401610f8d90611e39565b60405180910390fd5b60015f8281526020019081526020015f206002015460015f8381526020019081526020015f206003015410611000576040517f08c379a0000000000000000000000000000000000000000000000000000000008152600401610ff790611ea1565b60405180910390fd5b3373ffffffffffffffffffffffffffffffffffffffff1660015f8381526020019081526020015f205f015f9054906101000a900473ffffffffffffffffffffffffffffffffffffffff1673ffffffffffffffffffffffffffffffffffffffff16036110a0576040517f08c379a000000000000000000000000000000000000000000000000000000000815260040161109790611f2f565b60405180910390fd5b60015f8281526020019081526020015f2060010133908060018154018082558091505060019003905f5260205f20015f9091909190916101000a81548173ffffffffffffffffffffffffffffffffffffffff021916908373ffffffffffffffffffffffffffffffffffffffff16021790555060015f8281526020019081526020015f206003015f81548092919061113690611f4d565b9190505550807f66bacdfb07a49afa060b23ca1e16974d1919771fff2fd57717ab8857b0673b3460015f8481526020019081526020015f205f015f9054906101000a900473ffffffffffffffffffffffffffffffffffffffff163360015f8681526020019081526020015f206002015460015f8781526020019081526020015f206003015460015f8881526020019081526020015f20600401546040516111e1959493929190611f94565b60405180910390a25050565b600281815481106111fc575f80fd5b905f5260205f20015f915090505481565b5f82515f5b8181101561123c57836020820260208701015403611231576001602081f35b600181019050611212565b50505f905092915050565b5f805f815461125590611f4d565b919050819055905090565b60605f835190505f5b8181101561134f578373ffffffffffffffffffffffffffffffffffffffff1685828151811061129b5761129a611fe5565b5b602002602001015173ffffffffffffffffffffffffffffffffffffffff160361134257846001836112cc9190612012565b815181106112dd576112dc611fe5565b5b60200260200101518582815181106112f8576112f7611fe5565b5b602002602001019073ffffffffffffffffffffffffffffffffffffffff16908173ffffffffffffffffffffffffffffffffffffffff16815250506001820385528492505050611355565b8080600101915050611269565b50839150505b92915050565b5f8060028054905003611370575f90506113ac565b5f61137f600280549050611436565b90506002818154811061139557611394611fe5565b5b905f5260205f20015491506113a9826113af565b50505b90565b5f806113ba83611455565b9050600280549050811080156113d057505f8110155b1561142c575f60015f8581526020019081526020015f20905080600201548160030154111561142a576020600160025403026020600201015480602084026020600201015560016002540360025550600192505050611431565b505b5f9150505b919050565b5f80423380822092505050828161144d9190612072565b915050919050565b5f805f90505b6002805490508110156114a157826002828154811061147d5761147c611fe5565b5b905f5260205f2001540361149457809150506114ab565b808060010191505061145b565b5060028054905090505b919050565b6040518061014001604052805f73ffffffffffffffffffffffffffffffffffffffff168152602001606081526020015f81526020015f81526020015f81526020015f81526020015f80191681526020015f80191681526020015f81526020015f73ffffffffffffffffffffffffffffffffffffffff1681525090565b828054828255905f5260205f209081019282156115a2579160200282015b828111156115a1578251825f6101000a81548173ffffffffffffffffffffffffffffffffffffffff021916908373ffffffffffffffffffffffffffffffffffffffff1602179055509160200191906001019061154a565b5b5090506115af91906115b3565b5090565b5b808211156115ca575f815f9055506001016115b4565b5090565b5f80fd5b5f819050919050565b6115e4816115d2565b81146115ee575f80fd5b50565b5f813590506115ff816115db565b92915050565b5f819050919050565b61161781611605565b8114611621575f80fd5b50565b5f813590506116328161160e565b92915050565b5f806040838503121561164e5761164d6115ce565b5b5f61165b858286016115f1565b925050602061166c85828601611624565b9150509250929050565b5f806040838503121561168c5761168b6115ce565b5b5f611699858286016115f1565b92505060206116aa858286016115f1565b9150509250929050565b5f8115159050919050565b6116c8816116b4565b81146116d2575f80fd5b50565b5f813590506116e3816116bf565b92915050565b5f80604083850312156116ff576116fe6115ce565b5b5f61170c858286016115f1565b925050602061171d858286016116d5565b9150509250929050565b5f6020828403121561173c5761173b6115ce565b5b5f611749848285016115f1565b91505092915050565b5f73ffffffffffffffffffffffffffffffffffffffff82169050919050565b5f61177b82611752565b9050919050565b61178b81611771565b82525050565b61179a816115d2565b82525050565b6117a981611605565b82525050565b5f610120820190506117c35f83018c611782565b6117d0602083018b611791565b6117dd604083018a611791565b6117ea6060830189611791565b6117f76080830188611791565b61180460a08301876117a0565b61181160c08301866117a0565b61181e60e0830185611791565b61182c610100830184611782565b9a9950505050505050505050565b5f60208201905061184d5f830184611791565b92915050565b5f82825260208201905092915050565b7f47616d65206964206973206e65676174697665210000000000000000000000005f82015250565b5f611897601483611853565b91506118a282611863565b602082019050919050565b5f6020820190508181035f8301526118c48161188b565b9050919050565b7f506c61796572206e6f7420696e20746861742067616d652100000000000000005f82015250565b5f6118ff601883611853565b915061190a826118cb565b602082019050919050565b5f6020820190508181035f83015261192c816118f3565b9050919050565b7f426f61726420616c7265616479207375626d69747465642100000000000000005f82015250565b5f611967601883611853565b915061197282611933565b602082019050919050565b5f6020820190508181035f8301526119948161195b565b9050919050565b7f4d6178206a6f696e657273206d7573742062652067726561746572207468616e5f8201527f2030000000000000000000000000000000000000000000000000000000000000602082015250565b5f6119f5602283611853565b9150611a008261199b565b604082019050919050565b5f6020820190508181035f830152611a22816119e9565b9050919050565b7f42657420616d6f756e74206d7573742062652067726561746572207468616e205f8201527f3000000000000000000000000000000000000000000000000000000000000000602082015250565b5f611a83602183611853565b9150611a8e82611a29565b604082019050919050565b5f6020820190508181035f830152611ab081611a77565b9050919050565b7f4e487b71000000000000000000000000000000000000000000000000000000005f52604160045260245ffd5b7f4e487b71000000000000000000000000000000000000000000000000000000005f52601160045260245ffd5b5f611b1b826115d2565b9150611b26836115d2565b9250828201905080821115611b3e57611b3d611ae4565b5b92915050565b7f43726561746f722063616e6e6f7420726566757365207468656972206f776e205f8201527f67616d6521000000000000000000000000000000000000000000000000000000602082015250565b5f611b9e602583611853565b9150611ba982611b44565b604082019050919050565b5f6020820190508181035f830152611bcb81611b92565b9050919050565b5f819050919050565b5f819050919050565b5f611bfe611bf9611bf484611bd2565b611bdb565b6115d2565b9050919050565b611c0e81611be4565b82525050565b5f606082019050611c275f830186611782565b611c346020830185611791565b611c416040830184611c05565b949350505050565b7f45544820616d6f756e742069732077726f6e67210000000000000000000000005f82015250565b5f611c7d601483611853565b9150611c8882611c49565b602082019050919050565b5f6020820190508181035f830152611caa81611c71565b9050919050565b5f819050919050565b5f611cd4611ccf611cca84611cb1565b611bdb565b6115d2565b9050919050565b611ce481611cba565b82525050565b5f606082019050611cfd5f830186611782565b611d0a6020830185611791565b611d176040830184611cdb565b949350505050565b7f4e6f20617661696c61626c652067616d657321000000000000000000000000005f82015250565b5f611d53601383611853565b9150611d5e82611d1f565b602082019050919050565b5f6020820190508181035f830152611d8081611d47565b9050919050565b7f546869732067616d6520646f6573206e6f7420657869737421000000000000005f82015250565b5f611dbb601983611853565b9150611dc682611d87565b602082019050919050565b5f6020820190508181035f830152611de881611daf565b9050919050565b7f43686f73656e206964206e6567617469766521000000000000000000000000005f82015250565b5f611e23601383611853565b9150611e2e82611def565b602082019050919050565b5f6020820190508181035f830152611e5081611e17565b9050919050565b7f47616d6520616c72656164792074616b656e21000000000000000000000000005f82015250565b5f611e8b601383611853565b9150611e9682611e57565b602082019050919050565b5f6020820190508181035f830152611eb881611e7f565b9050919050565b7f596f752063616e2774206a6f696e20612067616d6520637265617465642062795f8201527f20796f757273656c662100000000000000000000000000000000000000000000602082015250565b5f611f19602a83611853565b9150611f2482611ebf565b604082019050919050565b5f6020820190508181035f830152611f4681611f0d565b9050919050565b5f611f57826115d2565b91507fffffffffffffffffffffffffffffffffffffffffffffffffffffffffffffffff8203611f8957611f88611ae4565b5b600182019050919050565b5f60a082019050611fa75f830188611782565b611fb46020830187611782565b611fc16040830186611791565b611fce6060830185611791565b611fdb6080830184611791565b9695505050505050565b7f4e487b71000000000000000000000000000000000000000000000000000000005f52603260045260245ffd5b5f61201c826115d2565b9150612027836115d2565b925082820390508181111561203f5761203e611ae4565b5b92915050565b7f4e487b71000000000000000000000000000000000000000000000000000000005f52601260045260245ffd5b5f61207c826115d2565b9150612087836115d2565b92508261209757612096612045565b5b82820690509291505056fea264697066735822122040e69c8bb5bce544ad224e54f43c71959cb9ce92077e50b58d904c6a6a3fd4ae64736f6c63430008190033",
  "immutableReferences": {},
  "source": "// SPDX-License-Identifier: MIT \npragma solidity ^0.8.19;\ncontract Bingo {\n    struct info {\n        address creator;\n        address[] joiners;\n        uint maxJoiners;\n        uint totalJoiners;\n        uint ethBalance;\n        uint betAmount;\n        bytes32 creatorMerkleRoot;\n        bytes32 joinerMerkleRoots; //TODO: implementa piu persone\n        uint accusationTime;\n        address accuser;\n    }\n    uint256 public gameId = 0; // Game ID counter\n    mapping(uint256 => info) public gameList; // Mapping of game ID to game info\n    uint256[] public elencoGiochiDisponibili;    // List of available game IDs\n\n    error OutputError(string myError); // event: error output\n    event GameCreated(uint256 indexed _gameId); //  Event to log game creation\n    \n    \n    //TODO: implementa piu persone\n    event GameJoined(\n        uint256 indexed _gameId,\n        address _creator,\n        address _joiner, \n        uint256 _maxjoiners,\n        uint256 _totalJoiners,\n        uint256 _ethAmount\n    );\n    event GameStarted(\n        uint256 indexed _gameId\n            \n    );\n    //TODO: AGGIUNGI DIVERSI LOSERS\n    event GameEnded(\n        uint256 indexed _gameId,\n        address _winner,\n        address _loser,\n        uint256 _reason\n        );\n\n    event ResolveAccuse(\n        uint256 indexed _gameId,\n        address _accuser\n    );\n\n    event AmountEthResponse(\n        address _sender,\n        uint256 _amount,\n        uint256 indexed _gameId,\n        uint256 _response\n    );\n\n    event GameEnded(uint256 indexed _gameId, address _winner);\n    event GameCancelled(uint256 indexed _gameId);\n\n\n    constructor() {\n        // Add constructor code\n    }\n    \n    function createGame(uint _maxJoiners, uint _betAmount)  public payable {\n        require(_maxJoiners > 0, \"Max joiners must be greater than 0\");\n        require(_betAmount > 0, \"Bet amount must be greater than 0\");\n\n    \n        uint256 gameID = getIDGame();\n        info memory newGame;\n        newGame.creator = msg.sender;\n        newGame.joiners = new address[](0);\n        newGame.maxJoiners = _maxJoiners;\n        newGame.totalJoiners = 0;\n        newGame.ethBalance = 0;\n        newGame.betAmount = _betAmount;\n        newGame.creatorMerkleRoot = 0;\n        newGame.joinerMerkleRoots = 0; //TODO: aggiorna per piu utenti\n        newGame.accusationTime = 0;\n        newGame.accuser = address(0);\n       \n        gameList[gameID] = newGame;\n           \n        elencoGiochiDisponibili.push(gameID);\n        gameList[gameID].ethBalance += msg.value;\n        emit GameCreated(gameID);\n    }\n    \n\n    function getIDGame() private returns(uint256 ) {\n        return ++gameId;\n    }\n    function joinGame(uint256 _gameId) public {\n        require(elencoGiochiDisponibili.length > 0, \"No available games!\");\n        uint256 chosenGameId;\n        if (_gameId == 0) {\n            chosenGameId = randomGame();\n        } else {\n            chosenGameId = _gameId;\n            require(removeFromArray(chosenGameId), \"This game does not exist!\");\n        }\n\n        require(chosenGameId > 0, \"Chosen id negative!\");\n        require(gameList[chosenGameId].totalJoiners < gameList[chosenGameId].maxJoiners, \"Game already taken!\");\n        require(gameList[chosenGameId].creator != msg.sender, \"You can't join a game created by yourself!\");\n\n        gameList[chosenGameId].joiners.push(msg.sender);\n        gameList[chosenGameId].totalJoiners++;\n        emit GameJoined( \n            chosenGameId,\n            gameList[chosenGameId].creator,\n            msg.sender,\n            gameList[chosenGameId].maxJoiners,\n            gameList[chosenGameId].totalJoiners,\n            gameList[chosenGameId].ethBalance\n        );\n    }\n\n    function amountEthDecision(uint256 _gameId, bool _response) public payable {\n    require(_gameId > 0, \"Game id is negative!\");\n\n    address sender = msg.sender;\n\n    require(\n        gameList[_gameId].creator == sender || contains(gameList[_gameId].joiners, sender),\n        \"Player not in that game!\"\n    );\n\n    if (!_response) {\n        require(gameList[_gameId].creator != sender, \"Creator cannot refuse their own game!\");\n        remove(gameList[_gameId].joiners,sender);\n        elencoGiochiDisponibili.push(_gameId);\n\n        emit AmountEthResponse(sender, gameList[_gameId].betAmount, _gameId, 0);\n    } else {\n        require(msg.value == gameList[_gameId].ethBalance, \"ETH amount is wrong!\");\n\n        gameList[_gameId].betAmount += msg.value;\n\n        emit AmountEthResponse(sender, gameList[_gameId].ethBalance, _gameId, 1);\n    }\n}\n\n\n\n    \n    function getInfo(uint256 _gameId) private view returns (info memory) {\n        // Restituisce la struttura dati \"info\" associata al gameId specificato\n        return gameList[_gameId];\n    }\n\n   function getRandomNumber(uint256 max) private view returns (uint256) {\n    uint256 seed;\n    assembly {\n        // Ottieni il timestamp del blocco\n        let timestampp := timestamp()\n        // Ottieni l'indirizzo del mittente del messaggio\n        let sender := caller()\n        \n\n        // Calcola l'hash keccak256\n        seed := keccak256(timestampp,sender)\n    }\n    return seed % max;\n}\n\n\n\n\n\n\n\n\n    function randomGame() private returns (uint256 idGiocoCasuale) {\n    // Verifica se ci sono giochi disponibili, altrimenti\n    if (elencoGiochiDisponibili.length == 0) {\n        return 0;\n    }\n\n    uint256 indiceCasuale = getRandomNumber(elencoGiochiDisponibili.length);\n    idGiocoCasuale = elencoGiochiDisponibili[indiceCasuale];// Ottiene l'ID del gioco corrispondente all'indice casuale\n\n    \n    removeFromArray(idGiocoCasuale);// Rimuove il gioco dalla lista degli ID disponibili se il massimo num di giocatori e' stato superato\n    return idGiocoCasuale;\n}\n\nfunction removeFromArray(uint256 _gameId) private returns (bool) {\n    // Trova l'indice dell'elemento da rimuovere\n    uint256 index = findIndex(_gameId);\n\n    // Verifica se l'elemento  stato trovato e se il numero totale di partecipanti supera il limite\n    if (index < elencoGiochiDisponibili.length && index >= 0) {\n        info storage gameInfo = gameList[_gameId];\n        if (gameInfo.totalJoiners > gameInfo.maxJoiners) {\n            assembly {\n                // Carica l'ultimo elemento dell'array\n                let lastElement := sload(add(add(elencoGiochiDisponibili.slot, 0x20), mul(sub(sload(elencoGiochiDisponibili.slot), 1), 0x20)))\n                // Sostituisci l'elemento da rimuovere con l'ultimo elemento\n                sstore(add(add(elencoGiochiDisponibili.slot, 0x20), mul(index, 0x20)), lastElement)\n                // Riduci la lunghezza dell'array\n                sstore(elencoGiochiDisponibili.slot, sub(sload(elencoGiochiDisponibili.slot), 1))\n            }\n            return true;\n        }\n    }\n    return false;\n}\n\n\n// Trova l'indice dell'elemento specificato nell'array elencoGiochiDisponibili\nfunction findIndex(uint256 _gameId) private view returns (uint256) {\n    for (uint256 i = 0; i < elencoGiochiDisponibili.length; i++) {\n        if (elencoGiochiDisponibili[i] == _gameId) {\n            return i;\n        }\n    }\n    // Se l'elemento non  stato trovato, restituisci una posizione oltre la lunghezza dell'array\n    return elencoGiochiDisponibili.length;\n}\n\n\n\nfunction contains(address[] memory array, address element) internal view returns (bool) {\n    assembly {\n        // Ottieni la lunghezza dell'array\n        let length := mload(array)\n\n        // Inizia il loop for con l'indice i = 0\n        for {\n            let i := 0\n        } lt(i, length) { // Continua finch i < length\n            // Incrementa l'indice i\n            i := add(i, 1)\n        } {\n            // Controlla se l'elemento  uguale all'elemento cercato\n            if eq(sload(add(add(array, 0x20), mul(i, 0x20))), element) {\n                // Se trovi l'elemento, restituisci true\n                let result := 1\n                return(result, 32)\n            }\n        }\n    }\n    // Se l'elemento non  stato trovato, restituisci false\n    return false;\n}\n\n\n\n\nfunction remove(address[] memory array, address element) internal pure returns (address[] memory) {\n    uint256 length = array.length;\n    // Cerca l'elemento nell'array\n    for (uint256 i = 0; i < length; i++) {\n        if (array[i] == element) {\n            // Se trovi l'elemento, sposta l'ultimo elemento nell'indice corrente\n            array[i] = array[length - 1];\n            // Riduci la lunghezza dell'array\n            assembly {\n                mstore(array, sub(length, 1))\n            }\n            // Restituisci l'array con un elemento in meno\n            return array;\n        }\n    }\n    // Se l'elemento non  stato trovato, restituisci l'array originale\n    return array;\n}\n\n\n    function submitBoard(uint256 _gameId, bytes32 _merkleRoot) public {\n    // Verifica che l'ID del gioco sia valido\n    require(_gameId > 0, \"Game id is negative!\");\n\n    // Ottiene il gioco corrispondente all'ID fornito dalla mappa gameList\n    info memory game = gameList[_gameId];\n    // Ottiene l'indirizzo del mittente della transazione\n    address sender = msg.sender;\n\n    // Verifica che il mittente sia uno dei partecipanti al gioco\n    require(\n        gameList[_gameId].creator == sender || contains(gameList[_gameId].joiners, sender),\n        \"Player not in that game!\"\n    );\n\n    // Verifica che il giocatore non abbia gi inviato il proprio merkle root\n    require(\n        (game.creator == sender && game.creatorMerkleRoot == 0) ||\n        (contains(gameList[_gameId].joiners, sender) && game.joinerMerkleRoots == 0),\n        \"Board already submitted!\"\n    );\n\n    if (game.creator == sender) {\n        game.creatorMerkleRoot = _merkleRoot;\n    } else {\n        game.joinerMerkleRoots = _merkleRoot;\n    }\n\n\n    // Aggiorna le variabili di stato solo se necessario\n    if (game.creator == sender) {\n        gameList[_gameId].creatorMerkleRoot = game.creatorMerkleRoot;\n    } else {\n        gameList[_gameId].joinerMerkleRoots = game.joinerMerkleRoots;\n    }\n}\n\n\n    // Add other functions as needed\n}",
  "sourcePath": "/home/leonardo/primo_semestre/lezioni_secondo_semestre/P2P/P2P_Project/contracts/Bingo.sol",
  "compiler": {
    "name": "solc",
    "version": "0.8.25+commit.b61c2a91.Emscripten.clang"
  },
  "schemaVersion": "3.4.16",
  "updatedAt": "2024-05-01T09:04:10.909Z",
  "devdoc": {
    "kind": "dev",
    "methods": {},
    "version": 1
  },
  "userdoc": {
    "kind": "user",
    "methods": {},
    "version": 1
  }
}