{
  "contractName": "Bingo",
  "abi": [
    {
      "inputs": [],
      "stateMutability": "nonpayable",
      "type": "constructor"
    },
    {
      "inputs": [
        {
          "internalType": "string",
          "name": "myError",
          "type": "string"
        }
      ],
      "name": "OutputError",
      "type": "error"
    },
    {
      "anonymous": false,
      "inputs": [
        {
          "indexed": false,
          "internalType": "address",
          "name": "_sender",
          "type": "address"
        },
        {
          "indexed": false,
          "internalType": "uint256",
          "name": "_amount",
          "type": "uint256"
        },
        {
          "indexed": true,
          "internalType": "uint256",
          "name": "_gameId",
          "type": "uint256"
        },
        {
          "indexed": false,
          "internalType": "uint256",
          "name": "_response",
          "type": "uint256"
        }
      ],
      "name": "AmountEthResponse",
      "type": "event"
    },
    {
      "anonymous": false,
      "inputs": [
        {
          "indexed": true,
          "internalType": "uint256",
          "name": "_gameId",
          "type": "uint256"
        }
      ],
      "name": "GameCancelled",
      "type": "event"
    },
    {
      "anonymous": false,
      "inputs": [
        {
          "indexed": true,
          "internalType": "uint256",
          "name": "_gameId",
          "type": "uint256"
        }
      ],
      "name": "GameCreated",
      "type": "event"
    },
    {
      "anonymous": false,
      "inputs": [
        {
          "indexed": true,
          "internalType": "uint256",
          "name": "_gameId",
          "type": "uint256"
        },
        {
          "indexed": false,
          "internalType": "address",
          "name": "_winner",
          "type": "address"
        },
        {
          "indexed": false,
          "internalType": "address",
          "name": "_loser",
          "type": "address"
        },
        {
          "indexed": false,
          "internalType": "uint256",
          "name": "_reason",
          "type": "uint256"
        }
      ],
      "name": "GameEnded",
      "type": "event"
    },
    {
      "anonymous": false,
      "inputs": [
        {
          "indexed": true,
          "internalType": "uint256",
          "name": "_gameId",
          "type": "uint256"
        },
        {
          "indexed": false,
          "internalType": "address",
          "name": "_winner",
          "type": "address"
        }
      ],
      "name": "GameEnded",
      "type": "event"
    },
    {
      "anonymous": false,
      "inputs": [
        {
          "indexed": true,
          "internalType": "uint256",
          "name": "_gameId",
          "type": "uint256"
        },
        {
          "indexed": false,
          "internalType": "address",
          "name": "_creator",
          "type": "address"
        },
        {
          "indexed": false,
          "internalType": "address",
          "name": "_joiner",
          "type": "address"
        },
        {
          "indexed": false,
          "internalType": "uint256",
          "name": "_maxjoiners",
          "type": "uint256"
        },
        {
          "indexed": false,
          "internalType": "uint256",
          "name": "_totalJoiners",
          "type": "uint256"
        },
        {
          "indexed": false,
          "internalType": "uint256",
          "name": "_ethAmount",
          "type": "uint256"
        }
      ],
      "name": "GameJoined",
      "type": "event"
    },
    {
      "anonymous": false,
      "inputs": [
        {
          "indexed": true,
          "internalType": "uint256",
          "name": "_gameId",
          "type": "uint256"
        }
      ],
      "name": "GameStarted",
      "type": "event"
    },
    {
      "anonymous": false,
      "inputs": [
        {
          "indexed": true,
          "internalType": "uint256",
          "name": "_gameId",
          "type": "uint256"
        },
        {
          "indexed": false,
          "internalType": "address",
          "name": "_accuser",
          "type": "address"
        }
      ],
      "name": "ResolveAccuse",
      "type": "event"
    },
    {
      "inputs": [
        {
          "internalType": "uint256",
          "name": "",
          "type": "uint256"
        }
      ],
      "name": "elencoGiochiDisponibili",
      "outputs": [
        {
          "internalType": "uint256",
          "name": "",
          "type": "uint256"
        }
      ],
      "stateMutability": "view",
      "type": "function"
    },
    {
      "inputs": [],
      "name": "gameId",
      "outputs": [
        {
          "internalType": "uint256",
          "name": "",
          "type": "uint256"
        }
      ],
      "stateMutability": "view",
      "type": "function"
    },
    {
      "inputs": [
        {
          "internalType": "uint256",
          "name": "",
          "type": "uint256"
        }
      ],
      "name": "gameList",
      "outputs": [
        {
          "internalType": "address",
          "name": "creator",
          "type": "address"
        },
        {
          "internalType": "uint256",
          "name": "maxJoiners",
          "type": "uint256"
        },
        {
          "internalType": "uint256",
          "name": "totalJoiners",
          "type": "uint256"
        },
        {
          "internalType": "uint256",
          "name": "ethBalance",
          "type": "uint256"
        },
        {
          "internalType": "uint256",
          "name": "betAmount",
          "type": "uint256"
        },
        {
          "internalType": "bytes32",
          "name": "creatorMerkleRoot",
          "type": "bytes32"
        },
        {
          "internalType": "bytes32",
          "name": "joinerMerkleRoots",
          "type": "bytes32"
        },
        {
          "internalType": "uint256",
          "name": "accusationTime",
          "type": "uint256"
        },
        {
          "internalType": "address",
          "name": "accuser",
          "type": "address"
        }
      ],
      "stateMutability": "view",
      "type": "function"
    },
    {
      "inputs": [
        {
          "internalType": "uint256",
          "name": "_maxJoiners",
          "type": "uint256"
        },
        {
          "internalType": "uint256",
          "name": "_betAmount",
          "type": "uint256"
        }
      ],
      "name": "createGame",
      "outputs": [],
      "stateMutability": "payable",
      "type": "function"
    },
    {
      "inputs": [
        {
          "internalType": "uint256",
          "name": "_gameId",
          "type": "uint256"
        }
      ],
      "name": "join",
      "outputs": [],
      "stateMutability": "nonpayable",
      "type": "function"
    }
  ],
  "bytecode": "0x60806040525f80553480156011575f80fd5b50610a2c8061001f5f395ff3fe608060405260043610610049575f3560e01c8063049878f31461004d57806360104cef14610075578063c6cfd08e14610091578063d7c81b55146100d5578063f0eb3df6146100ff575b5f80fd5b348015610058575f80fd5b50610073600480360381019061006e9190610683565b61013b565b005b61008f600480360381019061008a91906106ae565b61013e565b005b34801561009c575f80fd5b506100b760048036038101906100b29190610683565b610468565b6040516100cc99989796959493929190610752565b60405180910390f35b3480156100e0575f80fd5b506100e96104f0565b6040516100f691906107dd565b60405180910390f35b34801561010a575f80fd5b5061012560048036038101906101209190610683565b6104f5565b60405161013291906107dd565b60405180910390f35b50565b5f8211610180576040517f08c379a000000000000000000000000000000000000000000000000000000000815260040161017790610876565b60405180910390fd5b5f81116101c2576040517f08c379a00000000000000000000000000000000000000000000000000000000081526004016101b990610904565b60405180910390fd5b5f6101cb610515565b90506101d561052e565b33815f019073ffffffffffffffffffffffffffffffffffffffff16908173ffffffffffffffffffffffffffffffffffffffff16815250505f67ffffffffffffffff81111561022657610225610922565b5b6040519080825280602002602001820160405280156102545781602001602082028036833780820191505090505b508160200181905250838160400181815250505f8160600181815250505f816080018181525050828160a00181815250505f801b8160c00181815250505f801b8160e00181815250505f816101000181815250505f81610120019073ffffffffffffffffffffffffffffffffffffffff16908173ffffffffffffffffffffffffffffffffffffffff16815250508060015f8481526020019081526020015f205f820151815f015f6101000a81548173ffffffffffffffffffffffffffffffffffffffff021916908373ffffffffffffffffffffffffffffffffffffffff16021790555060208201518160010190805190602001906103539291906105aa565b5060408201518160020155606082015181600301556080820151816004015560a0820151816005015560c0820151816006015560e082015181600701556101008201518160080155610120820151816009015f6101000a81548173ffffffffffffffffffffffffffffffffffffffff021916908373ffffffffffffffffffffffffffffffffffffffff160217905550905050600282908060018154018082558091505060019003905f5260205f20015f90919091909150553460015f8481526020019081526020015f206004015f82825461042e919061097c565b92505081905550817fbd19c47e9925eb6f7be8bb1c13a841e0240aaeaf17f217e90022e9c8eb66877f60405160405180910390a250505050565b6001602052805f5260405f205f91509050805f015f9054906101000a900473ffffffffffffffffffffffffffffffffffffffff1690806002015490806003015490806004015490806005015490806006015490806007015490806008015490806009015f9054906101000a900473ffffffffffffffffffffffffffffffffffffffff16905089565b5f5481565b60028181548110610504575f80fd5b905f5260205f20015f915090505481565b5f805f8154610523906109af565b919050819055905090565b6040518061014001604052805f73ffffffffffffffffffffffffffffffffffffffff168152602001606081526020015f81526020015f81526020015f81526020015f81526020015f80191681526020015f80191681526020015f81526020015f73ffffffffffffffffffffffffffffffffffffffff1681525090565b828054828255905f5260205f20908101928215610620579160200282015b8281111561061f578251825f6101000a81548173ffffffffffffffffffffffffffffffffffffffff021916908373ffffffffffffffffffffffffffffffffffffffff160217905550916020019190600101906105c8565b5b50905061062d9190610631565b5090565b5b80821115610648575f815f905550600101610632565b5090565b5f80fd5b5f819050919050565b61066281610650565b811461066c575f80fd5b50565b5f8135905061067d81610659565b92915050565b5f602082840312156106985761069761064c565b5b5f6106a58482850161066f565b91505092915050565b5f80604083850312156106c4576106c361064c565b5b5f6106d18582860161066f565b92505060206106e28582860161066f565b9150509250929050565b5f73ffffffffffffffffffffffffffffffffffffffff82169050919050565b5f610715826106ec565b9050919050565b6107258161070b565b82525050565b61073481610650565b82525050565b5f819050919050565b61074c8161073a565b82525050565b5f610120820190506107665f83018c61071c565b610773602083018b61072b565b610780604083018a61072b565b61078d606083018961072b565b61079a608083018861072b565b6107a760a0830187610743565b6107b460c0830186610743565b6107c160e083018561072b565b6107cf61010083018461071c565b9a9950505050505050505050565b5f6020820190506107f05f83018461072b565b92915050565b5f82825260208201905092915050565b7f4d6178206a6f696e657273206d7573742062652067726561746572207468616e5f8201527f2030000000000000000000000000000000000000000000000000000000000000602082015250565b5f6108606022836107f6565b915061086b82610806565b604082019050919050565b5f6020820190508181035f83015261088d81610854565b9050919050565b7f42657420616d6f756e74206d7573742062652067726561746572207468616e205f8201527f3000000000000000000000000000000000000000000000000000000000000000602082015250565b5f6108ee6021836107f6565b91506108f982610894565b604082019050919050565b5f6020820190508181035f83015261091b816108e2565b9050919050565b7f4e487b71000000000000000000000000000000000000000000000000000000005f52604160045260245ffd5b7f4e487b71000000000000000000000000000000000000000000000000000000005f52601160045260245ffd5b5f61098682610650565b915061099183610650565b92508282019050808211156109a9576109a861094f565b5b92915050565b5f6109b982610650565b91507fffffffffffffffffffffffffffffffffffffffffffffffffffffffffffffffff82036109eb576109ea61094f565b5b60018201905091905056fea2646970667358221220fb2049ae64442980586dc0eb5ecd8761456594acdabe3b7e4b0508b2705c7b9b64736f6c63430008190033",
  "immutableReferences": {},
  "source": "// SPDX-License-Identifier: MIT \npragma solidity ^0.8.19;\ncontract Bingo {\n    struct info {\n    address creator;\n    address[] joiners;\n    uint maxJoiners;\n    uint totalJoiners;\n    uint ethBalance;\n    uint betAmount;\n    bytes32 creatorMerkleRoot;\n    bytes32 joinerMerkleRoots; //TODO: implementa piu persone\n    uint accusationTime;\n    address accuser;\n    }\n    uint256 public gameId = 0; // Game ID counter\n    mapping(uint256 => info) public gameList; // Mapping of game ID to game info\n    uint256[] public elencoGiochiDisponibili;    // List of available game IDs\n\n    error OutputError(string myError); // event: error output\n    event GameCreated(uint256 indexed _gameId); //  Event to log game creation\n    \n    \n    //TODO: implementa piu persone\n    event GameJoined(\n        uint256 indexed _gameId,\n        address _creator,\n        address _joiner, \n        uint256 _maxjoiners,\n        uint256 _totalJoiners,\n        uint256 _ethAmount\n    );\n    event GameStarted(\n        uint256 indexed _gameId\n            \n    );\n    //TODO: AGGIUNGI DIVERSI LOSERS\n    event GameEnded(\n        uint256 indexed _gameId,\n        address _winner,\n        address _loser,\n        uint256 _reason\n        );\n\n    event ResolveAccuse(\n        uint256 indexed _gameId,\n        address _accuser\n    );\n\n    event AmountEthResponse(\n        address _sender,\n        uint256 _amount,\n        uint256 indexed _gameId,\n        uint256 _response\n    );\n\n    event GameEnded(uint256 indexed _gameId, address _winner);\n    event GameCancelled(uint256 indexed _gameId);\n\n\n    constructor() {\n        // Add constructor code\n    }\n    \n    function createGame(uint _maxJoiners, uint _betAmount)  public payable {\n        require(_maxJoiners > 0, \"Max joiners must be greater than 0\");\n        require(_betAmount > 0, \"Bet amount must be greater than 0\");\n\n    \n        uint256 gameID = getIDGame();\n        info memory newGame;\n        newGame.creator = msg.sender;\n        newGame.joiners = new address[](0);\n        newGame.maxJoiners = _maxJoiners;\n        newGame.totalJoiners = 0;\n        newGame.ethBalance = 0;\n        newGame.betAmount = _betAmount;\n        newGame.creatorMerkleRoot = 0;\n        newGame.joinerMerkleRoots = 0; //TODO: aggiorna per piu utenti\n        newGame.accusationTime = 0;\n        newGame.accuser = address(0);\n       \n        gameList[gameID] = newGame;\n           \n        elencoGiochiDisponibili.push(gameID);\n        gameList[gameID].ethBalance += msg.value;\n        emit GameCreated(gameID);\n    }\n    \n\n    function getIDGame() private returns(uint256 ) {\n        return ++gameId;\n    }\n    function join(uint256 _gameId) external{\n        \n    }\n    \n    function getInfo(uint256 _gameId) private view returns (info memory) {\n        // Restituisce la struttura dati \"info\" associata al gameId specificato\n        return gameList[_gameId];\n    }\n\n    function getRandomNumber(uint256 max) private view  returns (uint256) {\n\n        uint256 seed = uint256(keccak256(abi.encodePacked(block.timestamp, msg.sender)));\n        return seed % max;\n    }\n\n\n    function randomGame() private returns (uint256 idGiocoCasuale) {\n    // Verifica se ci sono giochi disponibili, altrimenti\n    if (elencoGiochiDisponibili.length == 0) {\n        return 0;\n    }\n\n    uint256 indiceCasuale = getRandomNumber(elencoGiochiDisponibili.length);\n    idGiocoCasuale = elencoGiochiDisponibili[indiceCasuale];// Ottiene l'ID del gioco corrispondente all'indice casuale\n\n    \n    removeFromArray(idGiocoCasuale);// Rimuove il gioco dalla lista degli ID disponibili se il massimo num di giocatori e' stato superato\n    return idGiocoCasuale;\n}\nfunction removeFromArray(uint256 _gameId) private returns (bool) {\n    // Trova l'indice dell'elemento da rimuovere\n    uint256 index = findIndex(_gameId);\n\n    // Verifica se l'elemento  stato trovato e se il numero totale di partecipanti supera il limite\n    if (index < elencoGiochiDisponibili.length) {\n        info storage gameInfo = gameList[_gameId];\n        if (gameInfo.totalJoiners > gameInfo.maxJoiners) {\n            // Sostituisci l'elemento da rimuovere con l'ultimo elemento nell'array\n            elencoGiochiDisponibili[index] = elencoGiochiDisponibili[elencoGiochiDisponibili.length - 1];\n            // Rimuovi l'ultimo elemento (che ora si trova in posizione index)\n            elencoGiochiDisponibili.pop();\n            return true;\n        }\n    }\n    return false;\n}\n\n// Trova l'indice dell'elemento specificato nell'array elencoGiochiDisponibili\nfunction findIndex(uint256 _gameId) private view returns (uint256) {\n    for (uint256 i = 0; i < elencoGiochiDisponibili.length; i++) {\n        if (elencoGiochiDisponibili[i] == _gameId) {\n            return i;\n        }\n    }\n    // Se l'elemento non  stato trovato, restituisci una posizione oltre la lunghezza dell'array\n    return elencoGiochiDisponibili.length;\n}\n\n\n\n    // Add other functions as needed\n}",
  "sourcePath": "/home/leonardo/primo_semestre/lezioni_secondo_semestre/P2P/P2P_Project/contracts/Bingo.sol",
  "compiler": {
    "name": "solc",
    "version": "0.8.25+commit.b61c2a91.Emscripten.clang"
  },
  "schemaVersion": "3.4.16",
  "updatedAt": "2024-04-22T17:05:22.151Z",
  "devdoc": {
    "kind": "dev",
    "methods": {},
    "version": 1
  },
  "userdoc": {
    "kind": "user",
    "methods": {},
    "version": 1
  }
}