{
  "contractName": "Bingo",
  "abi": [
    {
      "inputs": [],
      "stateMutability": "nonpayable",
      "type": "constructor"
    },
    {
      "inputs": [
        {
          "internalType": "string",
          "name": "myError",
          "type": "string"
        }
      ],
      "name": "OutputError",
      "type": "error"
    },
    {
      "anonymous": false,
      "inputs": [
        {
          "indexed": false,
          "internalType": "address",
          "name": "_sender",
          "type": "address"
        },
        {
          "indexed": false,
          "internalType": "uint256",
          "name": "_amount",
          "type": "uint256"
        },
        {
          "indexed": true,
          "internalType": "uint256",
          "name": "_gameId",
          "type": "uint256"
        },
        {
          "indexed": false,
          "internalType": "uint256",
          "name": "_response",
          "type": "uint256"
        }
      ],
      "name": "AmountEthResponse",
      "type": "event"
    },
    {
      "anonymous": false,
      "inputs": [
        {
          "indexed": true,
          "internalType": "uint256",
          "name": "_gameId",
          "type": "uint256"
        },
        {
          "indexed": false,
          "internalType": "address",
          "name": "_address",
          "type": "address"
        },
        {
          "indexed": false,
          "internalType": "uint256",
          "name": "_row",
          "type": "uint256"
        },
        {
          "indexed": false,
          "internalType": "uint256",
          "name": "_col",
          "type": "uint256"
        }
      ],
      "name": "Checkvalue",
      "type": "event"
    },
    {
      "anonymous": false,
      "inputs": [
        {
          "indexed": true,
          "internalType": "uint256",
          "name": "_gameId",
          "type": "uint256"
        }
      ],
      "name": "GameCancelled",
      "type": "event"
    },
    {
      "anonymous": false,
      "inputs": [
        {
          "indexed": true,
          "internalType": "uint256",
          "name": "_gameId",
          "type": "uint256"
        }
      ],
      "name": "GameCreated",
      "type": "event"
    },
    {
      "anonymous": false,
      "inputs": [
        {
          "indexed": true,
          "internalType": "uint256",
          "name": "_gameId",
          "type": "uint256"
        },
        {
          "indexed": false,
          "internalType": "address",
          "name": "_winner",
          "type": "address"
        },
        {
          "indexed": false,
          "internalType": "address",
          "name": "_loser",
          "type": "address"
        },
        {
          "indexed": false,
          "internalType": "uint256",
          "name": "_reason",
          "type": "uint256"
        }
      ],
      "name": "GameEnded",
      "type": "event"
    },
    {
      "anonymous": false,
      "inputs": [
        {
          "indexed": true,
          "internalType": "uint256",
          "name": "_gameId",
          "type": "uint256"
        },
        {
          "indexed": false,
          "internalType": "address",
          "name": "_winner",
          "type": "address"
        }
      ],
      "name": "GameEnded",
      "type": "event"
    },
    {
      "anonymous": false,
      "inputs": [
        {
          "indexed": true,
          "internalType": "uint256",
          "name": "_gameId",
          "type": "uint256"
        },
        {
          "indexed": false,
          "internalType": "address",
          "name": "_creator",
          "type": "address"
        },
        {
          "indexed": false,
          "internalType": "address",
          "name": "_joiner",
          "type": "address"
        },
        {
          "indexed": false,
          "internalType": "uint256",
          "name": "_maxjoiners",
          "type": "uint256"
        },
        {
          "indexed": false,
          "internalType": "uint256",
          "name": "_totalJoiners",
          "type": "uint256"
        },
        {
          "indexed": false,
          "internalType": "uint256",
          "name": "_ethAmount",
          "type": "uint256"
        }
      ],
      "name": "GameJoined",
      "type": "event"
    },
    {
      "anonymous": false,
      "inputs": [
        {
          "indexed": true,
          "internalType": "uint256",
          "name": "_gameId",
          "type": "uint256"
        }
      ],
      "name": "GameStarted",
      "type": "event"
    },
    {
      "anonymous": false,
      "inputs": [
        {
          "indexed": true,
          "internalType": "uint256",
          "name": "_gameId",
          "type": "uint256"
        },
        {
          "indexed": false,
          "internalType": "address",
          "name": "_accuser",
          "type": "address"
        }
      ],
      "name": "ResolveAccuse",
      "type": "event"
    },
    {
      "inputs": [
        {
          "internalType": "uint256",
          "name": "",
          "type": "uint256"
        }
      ],
      "name": "elencoGiochiDisponibili",
      "outputs": [
        {
          "internalType": "uint256",
          "name": "",
          "type": "uint256"
        }
      ],
      "stateMutability": "view",
      "type": "function"
    },
    {
      "inputs": [],
      "name": "gameId",
      "outputs": [
        {
          "internalType": "uint256",
          "name": "",
          "type": "uint256"
        }
      ],
      "stateMutability": "view",
      "type": "function"
    },
    {
      "inputs": [
        {
          "internalType": "uint256",
          "name": "",
          "type": "uint256"
        }
      ],
      "name": "gameList",
      "outputs": [
        {
          "internalType": "address",
          "name": "creator",
          "type": "address"
        },
        {
          "internalType": "uint256",
          "name": "maxJoiners",
          "type": "uint256"
        },
        {
          "internalType": "uint256",
          "name": "totalJoiners",
          "type": "uint256"
        },
        {
          "internalType": "uint256",
          "name": "ethBalance",
          "type": "uint256"
        },
        {
          "internalType": "uint256",
          "name": "betAmount",
          "type": "uint256"
        },
        {
          "internalType": "bytes32",
          "name": "creatorMerkleRoot",
          "type": "bytes32"
        },
        {
          "internalType": "uint256",
          "name": "accusationTime",
          "type": "uint256"
        },
        {
          "internalType": "address",
          "name": "accuser",
          "type": "address"
        }
      ],
      "stateMutability": "view",
      "type": "function"
    },
    {
      "inputs": [
        {
          "internalType": "uint256",
          "name": "_maxJoiners",
          "type": "uint256"
        },
        {
          "internalType": "uint256",
          "name": "_betAmount",
          "type": "uint256"
        }
      ],
      "name": "createGame",
      "outputs": [],
      "stateMutability": "payable",
      "type": "function"
    },
    {
      "inputs": [
        {
          "internalType": "uint256",
          "name": "_gameId",
          "type": "uint256"
        }
      ],
      "name": "joinGame",
      "outputs": [],
      "stateMutability": "nonpayable",
      "type": "function"
    },
    {
      "inputs": [
        {
          "internalType": "uint256",
          "name": "_gameId",
          "type": "uint256"
        },
        {
          "internalType": "bool",
          "name": "_response",
          "type": "bool"
        }
      ],
      "name": "amountEthDecision",
      "outputs": [],
      "stateMutability": "payable",
      "type": "function"
    },
    {
      "inputs": [
        {
          "internalType": "uint256",
          "name": "_gameId",
          "type": "uint256"
        },
        {
          "internalType": "bytes32",
          "name": "_merkleRoot",
          "type": "bytes32"
        }
      ],
      "name": "submitBoard",
      "outputs": [],
      "stateMutability": "nonpayable",
      "type": "function"
    },
    {
      "inputs": [
        {
          "internalType": "uint256",
          "name": "_gameId",
          "type": "uint256"
        },
        {
          "internalType": "uint256",
          "name": "_row",
          "type": "uint256"
        },
        {
          "internalType": "uint256",
          "name": "_col",
          "type": "uint256"
        }
      ],
      "name": "shot",
      "outputs": [],
      "stateMutability": "nonpayable",
      "type": "function"
    }
  ],
  "bytecode": "0x60806040525f80553480156011575f80fd5b506120e08061001f5f395ff3fe60806040526004361061007a575f3560e01c8063c6cfd08e1161004d578063c6cfd08e14610106578063d7c81b5514610149578063efaa55a014610173578063f0eb3df61461019b5761007a565b80630328f6fb1461007e57806360104cef146100a6578063685385f3146100c25780639377b400146100de575b5f80fd5b348015610089575f80fd5b506100a4600480360381019061009f9190611543565b6101d7565b005b6100c060048036038101906100bb9190611581565b6105b8565b005b6100dc60048036038101906100d791906115f4565b610773565b005b3480156100e9575f80fd5b5061010460048036038101906100ff9190611632565b610b96565b005b348015610111575f80fd5b5061012c60048036038101906101279190611682565b610e65565b60405161014098979695949392919061170a565b60405180910390f35b348015610154575f80fd5b5061015d610ee7565b60405161016a9190611786565b60405180910390f35b34801561017e575f80fd5b5061019960048036038101906101949190611682565b610eec565b005b3480156101a6575f80fd5b506101c160048036038101906101bc9190611682565b61122f565b6040516101ce9190611786565b60405180910390f35b5f8211610219576040517f08c379a0000000000000000000000000000000000000000000000000000000008152600401610210906117f9565b60405180910390fd5b5f60015f8481526020019081526020015f2090505f3390508073ffffffffffffffffffffffffffffffffffffffff1660015f8681526020019081526020015f205f015f9054906101000a900473ffffffffffffffffffffffffffffffffffffffff1673ffffffffffffffffffffffffffffffffffffffff161480610338575061033760015f8681526020019081526020015f2060010180548060200260200160405190810160405280929190818152602001828054801561032c57602002820191905f5260205f20905b815f9054906101000a900473ffffffffffffffffffffffffffffffffffffffff1673ffffffffffffffffffffffffffffffffffffffff16815260200190600101908083116102e3575b50505050508261124f565b5b610377576040517f08c379a000000000000000000000000000000000000000000000000000000000815260040161036e90611861565b60405180910390fd5b8073ffffffffffffffffffffffffffffffffffffffff16825f015f9054906101000a900473ffffffffffffffffffffffffffffffffffffffff1673ffffffffffffffffffffffffffffffffffffffff161480156103d957505f801b8260060154145b806104cb575061047e60015f8681526020019081526020015f2060010180548060200260200160405190810160405280929190818152602001828054801561047357602002820191905f5260205f20905b815f9054906101000a900473ffffffffffffffffffffffffffffffffffffffff1673ffffffffffffffffffffffffffffffffffffffff168152602001906001019080831161042a575b50505050508261124f565b80156104ca57505f801b826007015f8373ffffffffffffffffffffffffffffffffffffffff1673ffffffffffffffffffffffffffffffffffffffff1681526020019081526020015f2054145b5b61050a576040517f08c379a0000000000000000000000000000000000000000000000000000000008152600401610501906118c9565b60405180910390fd5b8073ffffffffffffffffffffffffffffffffffffffff16825f015f9054906101000a900473ffffffffffffffffffffffffffffffffffffffff1673ffffffffffffffffffffffffffffffffffffffff160361056d578282600601819055506105b2565b82826007015f8373ffffffffffffffffffffffffffffffffffffffff1673ffffffffffffffffffffffffffffffffffffffff1681526020019081526020015f20819055505b50505050565b5f82116105fa576040517f08c379a00000000000000000000000000000000000000000000000000000000081526004016105f190611957565b60405180910390fd5b5f811161063c576040517f08c379a0000000000000000000000000000000000000000000000000000000008152600401610633906119e5565b60405180910390fd5b5f805f81548092919061064e90611a30565b9190505590505f60015f8381526020019081526020015f20905033815f015f6101000a81548173ffffffffffffffffffffffffffffffffffffffff021916908373ffffffffffffffffffffffffffffffffffffffff1602179055508381600201819055508281600501819055503481600401819055505f801b81600601819055505f81600801819055505f816009015f6101000a81548173ffffffffffffffffffffffffffffffffffffffff021916908373ffffffffffffffffffffffffffffffffffffffff160217905550600282908060018154018082558091505060019003905f5260205f20015f9091909190915055817fbd19c47e9925eb6f7be8bb1c13a841e0240aaeaf17f217e90022e9c8eb66877f60405160405180910390a250505050565b5f82116107b5576040517f08c379a00000000000000000000000000000000000000000000000000000000081526004016107ac906117f9565b60405180910390fd5b5f3390508073ffffffffffffffffffffffffffffffffffffffff1660015f8581526020019081526020015f205f015f9054906101000a900473ffffffffffffffffffffffffffffffffffffffff1673ffffffffffffffffffffffffffffffffffffffff1614806108c057506108bf60015f8581526020019081526020015f206001018054806020026020016040519081016040528092919081815260200182805480156108b457602002820191905f5260205f20905b815f9054906101000a900473ffffffffffffffffffffffffffffffffffffffff1673ffffffffffffffffffffffffffffffffffffffff168152602001906001019080831161086b575b50505050508261124f565b5b6108ff576040517f08c379a00000000000000000000000000000000000000000000000000000000081526004016108f690611861565b60405180910390fd5b81610abf578073ffffffffffffffffffffffffffffffffffffffff1660015f8581526020019081526020015f205f015f9054906101000a900473ffffffffffffffffffffffffffffffffffffffff1673ffffffffffffffffffffffffffffffffffffffff16036109a4576040517f08c379a000000000000000000000000000000000000000000000000000000000815260040161099b90611ae7565b60405180910390fd5b610a4360015f8581526020019081526020015f20600101805480602002602001604051908101604052809291908181526020018280548015610a3857602002820191905f5260205f20905b815f9054906101000a900473ffffffffffffffffffffffffffffffffffffffff1673ffffffffffffffffffffffffffffffffffffffff16815260200190600101908083116109ef575b505050505082611289565b50600283908060018154018082558091505060019003905f5260205f20015f9091909190915055827f4cb66ab516bedeef3035e50502f6b3b1da5140fec06e41646bf41422c60c276b8260015f8781526020019081526020015f20600501545f604051610ab293929190611b47565b60405180910390a2610b91565b60015f8481526020019081526020015f20600401543414610b15576040517f08c379a0000000000000000000000000000000000000000000000000000000008152600401610b0c90611bc6565b60405180910390fd5b3460015f8581526020019081526020015f206005015f828254610b389190611be4565b92505081905550827f4cb66ab516bedeef3035e50502f6b3b1da5140fec06e41646bf41422c60c276b8260015f8781526020019081526020015f20600401546001604051610b8893929190611c50565b60405180910390a25b505050565b5f8311610bd8576040517f08c379a0000000000000000000000000000000000000000000000000000000008152600401610bcf90611ccf565b60405180910390fd5b5f3390508073ffffffffffffffffffffffffffffffffffffffff1660015f8681526020019081526020015f205f015f9054906101000a900473ffffffffffffffffffffffffffffffffffffffff1673ffffffffffffffffffffffffffffffffffffffff161480610ce35750610ce260015f8681526020019081526020015f20600101805480602002602001604051908101604052809291908181526020018280548015610cd757602002820191905f5260205f20905b815f9054906101000a900473ffffffffffffffffffffffffffffffffffffffff1673ffffffffffffffffffffffffffffffffffffffff1681526020019060010190808311610c8e575b50505050508261124f565b5b610d22576040517f08c379a0000000000000000000000000000000000000000000000000000000008152600401610d1990611d37565b60405180910390fd5b5f73ffffffffffffffffffffffffffffffffffffffff1660015f8681526020019081526020015f206009015f9054906101000a900473ffffffffffffffffffffffffffffffffffffffff1673ffffffffffffffffffffffffffffffffffffffff1614610e5f57837f752f14bd3601a325e97334f39b83b533f54b17c23d3f601c9ed2cee72cd404a360015f8781526020019081526020015f206009015f9054906101000a900473ffffffffffffffffffffffffffffffffffffffff16604051610deb9190611d55565b60405180910390a25f60015f8681526020019081526020015f206009015f6101000a81548173ffffffffffffffffffffffffffffffffffffffff021916908373ffffffffffffffffffffffffffffffffffffffff1602179055505f60015f8681526020019081526020015f20600801819055505b50505050565b6001602052805f5260405f205f91509050805f015f9054906101000a900473ffffffffffffffffffffffffffffffffffffffff1690806002015490806003015490806004015490806005015490806006015490806008015490806009015f9054906101000a900473ffffffffffffffffffffffffffffffffffffffff16905088565b5f5481565b5f60028054905011610f33576040517f08c379a0000000000000000000000000000000000000000000000000000000008152600401610f2a90611db8565b60405180910390fd5b5f808203610f4a57610f43611384565b9050610f96565b819050610f56816113d8565b610f95576040517f08c379a0000000000000000000000000000000000000000000000000000000008152600401610f8c90611e20565b60405180910390fd5b5b5f8111610fd8576040517f08c379a0000000000000000000000000000000000000000000000000000000008152600401610fcf90611e88565b60405180910390fd5b60015f8281526020019081526020015f206002015460015f8381526020019081526020015f206003015410611042576040517f08c379a000000000000000000000000000000000000000000000000000000000815260040161103990611ef0565b60405180910390fd5b3373ffffffffffffffffffffffffffffffffffffffff1660015f8381526020019081526020015f205f015f9054906101000a900473ffffffffffffffffffffffffffffffffffffffff1673ffffffffffffffffffffffffffffffffffffffff16036110e2576040517f08c379a00000000000000000000000000000000000000000000000000000000081526004016110d990611f7e565b60405180910390fd5b60015f8281526020019081526020015f2060010133908060018154018082558091505060019003905f5260205f20015f9091909190916101000a81548173ffffffffffffffffffffffffffffffffffffffff021916908373ffffffffffffffffffffffffffffffffffffffff16021790555060015f8281526020019081526020015f206003015f81548092919061117890611a30565b9190505550807f66bacdfb07a49afa060b23ca1e16974d1919771fff2fd57717ab8857b0673b3460015f8481526020019081526020015f205f015f9054906101000a900473ffffffffffffffffffffffffffffffffffffffff163360015f8681526020019081526020015f206002015460015f8781526020019081526020015f206003015460015f8881526020019081526020015f2060040154604051611223959493929190611f9c565b60405180910390a25050565b6002818154811061123e575f80fd5b905f5260205f20015f915090505481565b5f82515f5b8181101561127e57836020820260208701015403611273576001602081f35b600181019050611254565b50505f905092915050565b60605f835190505f5b81811015611378578373ffffffffffffffffffffffffffffffffffffffff168582815181106112c4576112c3611fed565b5b602002602001015173ffffffffffffffffffffffffffffffffffffffff160361136b57846001836112f5919061201a565b8151811061130657611305611fed565b5b602002602001015185828151811061132157611320611fed565b5b602002602001019073ffffffffffffffffffffffffffffffffffffffff16908173ffffffffffffffffffffffffffffffffffffffff1681525050600182038552849250505061137e565b8080600101915050611292565b50839150505b92915050565b5f8060028054905003611399575f90506113d5565b5f6113a860028054905061145f565b9050600281815481106113be576113bd611fed565b5b905f5260205f20015491506113d2826113d8565b50505b90565b5f806113e38361147e565b9050600280549050811080156113f957505f8110155b15611455575f60015f8581526020019081526020015f20905080600201548160030154111561145357602060016002540302602060020101548060208402602060020101556001600254036002555060019250505061145a565b505b5f9150505b919050565b5f804233808220925050508281611476919061207a565b915050919050565b5f805f90505b6002805490508110156114ca5782600282815481106114a6576114a5611fed565b5b905f5260205f200154036114bd57809150506114d4565b8080600101915050611484565b5060028054905090505b919050565b5f80fd5b5f819050919050565b6114ef816114dd565b81146114f9575f80fd5b50565b5f8135905061150a816114e6565b92915050565b5f819050919050565b61152281611510565b811461152c575f80fd5b50565b5f8135905061153d81611519565b92915050565b5f8060408385031215611559576115586114d9565b5b5f611566858286016114fc565b92505060206115778582860161152f565b9150509250929050565b5f8060408385031215611597576115966114d9565b5b5f6115a4858286016114fc565b92505060206115b5858286016114fc565b9150509250929050565b5f8115159050919050565b6115d3816115bf565b81146115dd575f80fd5b50565b5f813590506115ee816115ca565b92915050565b5f806040838503121561160a576116096114d9565b5b5f611617858286016114fc565b9250506020611628858286016115e0565b9150509250929050565b5f805f60608486031215611649576116486114d9565b5b5f611656868287016114fc565b9350506020611667868287016114fc565b9250506040611678868287016114fc565b9150509250925092565b5f60208284031215611697576116966114d9565b5b5f6116a4848285016114fc565b91505092915050565b5f73ffffffffffffffffffffffffffffffffffffffff82169050919050565b5f6116d6826116ad565b9050919050565b6116e6816116cc565b82525050565b6116f5816114dd565b82525050565b61170481611510565b82525050565b5f6101008201905061171e5f83018b6116dd565b61172b602083018a6116ec565b61173860408301896116ec565b61174560608301886116ec565b61175260808301876116ec565b61175f60a08301866116fb565b61176c60c08301856116ec565b61177960e08301846116dd565b9998505050505050505050565b5f6020820190506117995f8301846116ec565b92915050565b5f82825260208201905092915050565b7f47616d65206964206973206e65676174697665210000000000000000000000005f82015250565b5f6117e360148361179f565b91506117ee826117af565b602082019050919050565b5f6020820190508181035f830152611810816117d7565b9050919050565b7f506c61796572206e6f7420696e20746861742067616d652100000000000000005f82015250565b5f61184b60188361179f565b915061185682611817565b602082019050919050565b5f6020820190508181035f8301526118788161183f565b9050919050565b7f426f61726420616c7265616479207375626d69747465642100000000000000005f82015250565b5f6118b360188361179f565b91506118be8261187f565b602082019050919050565b5f6020820190508181035f8301526118e0816118a7565b9050919050565b7f4d6178206a6f696e657273206d7573742062652067726561746572207468616e5f8201527f2030000000000000000000000000000000000000000000000000000000000000602082015250565b5f61194160228361179f565b915061194c826118e7565b604082019050919050565b5f6020820190508181035f83015261196e81611935565b9050919050565b7f42657420616d6f756e74206d7573742062652067726561746572207468616e205f8201527f3000000000000000000000000000000000000000000000000000000000000000602082015250565b5f6119cf60218361179f565b91506119da82611975565b604082019050919050565b5f6020820190508181035f8301526119fc816119c3565b9050919050565b7f4e487b71000000000000000000000000000000000000000000000000000000005f52601160045260245ffd5b5f611a3a826114dd565b91507fffffffffffffffffffffffffffffffffffffffffffffffffffffffffffffffff8203611a6c57611a6b611a03565b5b600182019050919050565b7f43726561746f722063616e6e6f7420726566757365207468656972206f776e205f8201527f67616d6521000000000000000000000000000000000000000000000000000000602082015250565b5f611ad160258361179f565b9150611adc82611a77565b604082019050919050565b5f6020820190508181035f830152611afe81611ac5565b9050919050565b5f819050919050565b5f819050919050565b5f611b31611b2c611b2784611b05565b611b0e565b6114dd565b9050919050565b611b4181611b17565b82525050565b5f606082019050611b5a5f8301866116dd565b611b6760208301856116ec565b611b746040830184611b38565b949350505050565b7f45544820616d6f756e742069732077726f6e67210000000000000000000000005f82015250565b5f611bb060148361179f565b9150611bbb82611b7c565b602082019050919050565b5f6020820190508181035f830152611bdd81611ba4565b9050919050565b5f611bee826114dd565b9150611bf9836114dd565b9250828201905080821115611c1157611c10611a03565b5b92915050565b5f819050919050565b5f611c3a611c35611c3084611c17565b611b0e565b6114dd565b9050919050565b611c4a81611c20565b82525050565b5f606082019050611c635f8301866116dd565b611c7060208301856116ec565b611c7d6040830184611c41565b949350505050565b7f496e76616c69642067616d6520494400000000000000000000000000000000005f82015250565b5f611cb9600f8361179f565b9150611cc482611c85565b602082019050919050565b5f6020820190508181035f830152611ce681611cad565b9050919050565b7f4e6f742061207061727469636970616e740000000000000000000000000000005f82015250565b5f611d2160118361179f565b9150611d2c82611ced565b602082019050919050565b5f6020820190508181035f830152611d4e81611d15565b9050919050565b5f602082019050611d685f8301846116dd565b92915050565b7f4e6f20617661696c61626c652067616d657321000000000000000000000000005f82015250565b5f611da260138361179f565b9150611dad82611d6e565b602082019050919050565b5f6020820190508181035f830152611dcf81611d96565b9050919050565b7f546869732067616d6520646f6573206e6f7420657869737421000000000000005f82015250565b5f611e0a60198361179f565b9150611e1582611dd6565b602082019050919050565b5f6020820190508181035f830152611e3781611dfe565b9050919050565b7f43686f73656e206964206e6567617469766521000000000000000000000000005f82015250565b5f611e7260138361179f565b9150611e7d82611e3e565b602082019050919050565b5f6020820190508181035f830152611e9f81611e66565b9050919050565b7f47616d6520616c72656164792074616b656e21000000000000000000000000005f82015250565b5f611eda60138361179f565b9150611ee582611ea6565b602082019050919050565b5f6020820190508181035f830152611f0781611ece565b9050919050565b7f596f752063616e2774206a6f696e20612067616d6520637265617465642062795f8201527f20796f757273656c662100000000000000000000000000000000000000000000602082015250565b5f611f68602a8361179f565b9150611f7382611f0e565b604082019050919050565b5f6020820190508181035f830152611f9581611f5c565b9050919050565b5f60a082019050611faf5f8301886116dd565b611fbc60208301876116dd565b611fc960408301866116ec565b611fd660608301856116ec565b611fe360808301846116ec565b9695505050505050565b7f4e487b71000000000000000000000000000000000000000000000000000000005f52603260045260245ffd5b5f612024826114dd565b915061202f836114dd565b925082820390508181111561204757612046611a03565b5b92915050565b7f4e487b71000000000000000000000000000000000000000000000000000000005f52601260045260245ffd5b5f612084826114dd565b915061208f836114dd565b92508261209f5761209e61204d565b5b82820690509291505056fea2646970667358221220248d1844a94ab62c308c334cd5708b6f540d55f62225e87663f384f02e85316964736f6c63430008190033",
  "immutableReferences": {},
  "source": "// SPDX-License-Identifier: MIT \npragma solidity ^0.8.19;\ncontract Bingo {\n    struct info {\n        address creator;\n        address[] joiners;\n        uint maxJoiners;\n        uint totalJoiners;\n        uint ethBalance;\n        uint betAmount;\n        bytes32 creatorMerkleRoot;\n        mapping(address => bytes32) joinerMerkleRoots; //TODO: implementa piu persone\n        uint accusationTime;\n        address accuser;\n    }\n    uint256 public gameId = 0; // Game ID counter\n    mapping(uint256 => info) public gameList; // Mapping of game ID to game info\n    uint256[] public elencoGiochiDisponibili;    // List of available game IDs\n\n    error OutputError(string myError); // event: error output\n    event GameCreated(uint256 indexed _gameId); //  Event to log game creation\n    \n    \n    //TODO: implementa piu persone\n    event GameJoined(\n        uint256 indexed _gameId,\n        address _creator,\n        address _joiner, \n        uint256 _maxjoiners,\n        uint256 _totalJoiners,\n        uint256 _ethAmount\n    );\n    event GameStarted(\n        uint256 indexed _gameId\n            \n    );\n    event Checkvalue(\n        uint256 indexed _gameId,\n        address _address,\n        uint256 _row,\n        uint256 _col\n    );\n    //TODO: AGGIUNGI DIVERSI LOSERS\n    event GameEnded(\n        uint256 indexed _gameId,\n        address _winner,\n        address _loser,\n        uint256 _reason\n        );\n\n    event ResolveAccuse(\n        uint256 indexed _gameId,\n        address _accuser\n    );\n\n    event AmountEthResponse(\n        address _sender,\n        uint256 _amount,\n        uint256 indexed _gameId,\n        uint256 _response\n    );\n\n    event GameEnded(uint256 indexed _gameId, address _winner);\n    event GameCancelled(uint256 indexed _gameId);\n\n\n    constructor() {\n        // Add constructor code\n    }\n    \n    function createGame(uint _maxJoiners, uint _betAmount) public payable {\n        require(_maxJoiners > 0, \"Max joiners must be greater than 0\");\n        require(_betAmount > 0, \"Bet amount must be greater than 0\");\n\n        uint256 gameID = gameId++;\n        info storage newGame = gameList[gameID];\n        newGame.creator = msg.sender;\n        newGame.maxJoiners = _maxJoiners;\n        newGame.betAmount = _betAmount;\n        newGame.ethBalance = msg.value;\n        newGame.creatorMerkleRoot = 0;\n        newGame.accusationTime = 0;\n        newGame.accuser = address(0);\n\n        elencoGiochiDisponibili.push(gameID);\n        emit GameCreated(gameID);\n    }\n    \n\n    function getIDGame() private returns(uint256 ) {\n        return ++gameId;\n    }\n    function joinGame(uint256 _gameId) public {\n        require(elencoGiochiDisponibili.length > 0, \"No available games!\");\n        uint256 chosenGameId;\n        if (_gameId == 0) {\n            chosenGameId = randomGame();\n        } else {\n            chosenGameId = _gameId;\n            require(removeFromArray(chosenGameId), \"This game does not exist!\");\n        }\n\n        require(chosenGameId > 0, \"Chosen id negative!\");\n        require(gameList[chosenGameId].totalJoiners < gameList[chosenGameId].maxJoiners, \"Game already taken!\");\n        require(gameList[chosenGameId].creator != msg.sender, \"You can't join a game created by yourself!\");\n\n        gameList[chosenGameId].joiners.push(msg.sender);\n        gameList[chosenGameId].totalJoiners++;\n        emit GameJoined( \n            chosenGameId,\n            gameList[chosenGameId].creator,\n            msg.sender,\n            gameList[chosenGameId].maxJoiners,\n            gameList[chosenGameId].totalJoiners,\n            gameList[chosenGameId].ethBalance\n        );\n    }\n\n    function amountEthDecision(uint256 _gameId, bool _response) public payable {\n    require(_gameId > 0, \"Game id is negative!\");\n\n    address sender = msg.sender;\n\n    require(\n        gameList[_gameId].creator == sender || contains(gameList[_gameId].joiners, sender),\n        \"Player not in that game!\"\n    );\n\n    if (!_response) {\n        require(gameList[_gameId].creator != sender, \"Creator cannot refuse their own game!\");\n        remove(gameList[_gameId].joiners,sender);\n        elencoGiochiDisponibili.push(_gameId);\n\n        emit AmountEthResponse(sender, gameList[_gameId].betAmount, _gameId, 0);\n    } else {\n        require(msg.value == gameList[_gameId].ethBalance, \"ETH amount is wrong!\");\n\n        gameList[_gameId].betAmount += msg.value;\n\n        emit AmountEthResponse(sender, gameList[_gameId].ethBalance, _gameId, 1);\n    }\n}\n\n\n\n    \n    function getInfo(uint256 _gameId) private view returns (info storage) {\n        // Restituisce la struttura dati \"info\" associata al gameId specificato\n        return gameList[_gameId];\n    }\n\n   function getRandomNumber(uint256 max) private view returns (uint256) {\n    uint256 seed;\n    assembly {\n        // Ottieni il timestamp del blocco\n        let timestampp := timestamp()\n        // Ottieni l'indirizzo del mittente del messaggio\n        let sender := caller()\n        \n\n        // Calcola l'hash keccak256\n        seed := keccak256(timestampp,sender)\n    }\n    return seed % max;\n}\n\n\n\n    function randomGame() private returns (uint256 idGiocoCasuale) {\n    // Verifica se ci sono giochi disponibili, altrimenti\n    if (elencoGiochiDisponibili.length == 0) {\n        return 0;\n    }\n\n    uint256 indiceCasuale = getRandomNumber(elencoGiochiDisponibili.length);\n    idGiocoCasuale = elencoGiochiDisponibili[indiceCasuale];// Ottiene l'ID del gioco corrispondente all'indice casuale\n\n    \n    removeFromArray(idGiocoCasuale);// Rimuove il gioco dalla lista degli ID disponibili se il massimo num di giocatori e' stato superato\n    return idGiocoCasuale;\n}\n\nfunction removeFromArray(uint256 _gameId) private returns (bool) {\n    // Trova l'indice dell'elemento da rimuovere\n    uint256 index = findIndex(_gameId);\n\n    // Verifica se l'elemento  stato trovato e se il numero totale di partecipanti supera il limite\n    if (index < elencoGiochiDisponibili.length && index >= 0) {\n        info storage gameInfo = gameList[_gameId];\n        if (gameInfo.totalJoiners > gameInfo.maxJoiners) {\n            assembly {\n                // Carica l'ultimo elemento dell'array\n                let lastElement := sload(add(add(elencoGiochiDisponibili.slot, 0x20), mul(sub(sload(elencoGiochiDisponibili.slot), 1), 0x20)))\n                // Sostituisci l'elemento da rimuovere con l'ultimo elemento\n                sstore(add(add(elencoGiochiDisponibili.slot, 0x20), mul(index, 0x20)), lastElement)\n                // Riduci la lunghezza dell'array\n                sstore(elencoGiochiDisponibili.slot, sub(sload(elencoGiochiDisponibili.slot), 1))\n            }\n            return true;\n        }\n    }\n    return false;\n}\n\n\n// Trova l'indice dell'elemento specificato nell'array elencoGiochiDisponibili\nfunction findIndex(uint256 _gameId) private view returns (uint256) {\n    for (uint256 i = 0; i < elencoGiochiDisponibili.length; i++) {\n        if (elencoGiochiDisponibili[i] == _gameId) {\n            return i;\n        }\n    }\n    // Se l'elemento non  stato trovato, restituisci una posizione oltre la lunghezza dell'array\n    return elencoGiochiDisponibili.length;\n}\n\n\n\nfunction contains(address[] memory array, address element) internal view returns (bool) {\n    assembly {\n        // Ottieni la lunghezza dell'array\n        let length := mload(array)\n\n        // Inizia il loop for con l'indice i = 0\n        for {\n            let i := 0\n        } lt(i, length) { // Continua finch i < length\n            // Incrementa l'indice i\n            i := add(i, 1)\n        } {\n            // Controlla se l'elemento  uguale all'elemento cercato\n            if eq(sload(add(add(array, 0x20), mul(i, 0x20))), element) {\n                // Se trovi l'elemento, restituisci true\n                let result := 1\n                return(result, 32)\n            }\n        }\n    }\n    // Se l'elemento non  stato trovato, restituisci false\n    return false;\n}\n\n\n\n\nfunction remove(address[] memory array, address element) internal pure returns (address[] memory) {\n    uint256 length = array.length;\n    // Cerca l'elemento nell'array\n    for (uint256 i = 0; i < length; i++) {\n        if (array[i] == element) {\n            // Se trovi l'elemento, sposta l'ultimo elemento nell'indice corrente\n            array[i] = array[length - 1];\n            // Riduci la lunghezza dell'array\n            assembly {\n                mstore(array, sub(length, 1))\n            }\n            // Restituisci l'array con un elemento in meno\n            return array;\n        }\n    }\n    // Se l'elemento non  stato trovato, restituisci l'array originale\n    return array;\n}\n\n\n    function submitBoard(uint256 _gameId, bytes32 _merkleRoot) public {\n    // Verifica che l'ID del gioco sia valido\n    require(_gameId > 0, \"Game id is negative!\");\n\n    // Ottiene il gioco corrispondente all'ID fornito dalla mappa gameList\n    info storage game = gameList[_gameId];\n    // Ottiene l'indirizzo del mittente della transazione\n    address sender = msg.sender;\n\n    // Verifica che il mittente sia uno dei partecipanti al gioco\n    require(\n        gameList[_gameId].creator == sender || contains(gameList[_gameId].joiners, sender),\n        \"Player not in that game!\"\n    );\n\n    // Verifica che il giocatore non abbia gi inviato il proprio merkle root\n    require(\n        (game.creator == sender && game.creatorMerkleRoot == 0) ||\n        (contains(gameList[_gameId].joiners, sender) && game.joinerMerkleRoots[sender] == 0),//TODO: aggiorna per piu utenti\n        \"Board already submitted!\"\n    );\n    if (game.creator == sender) {\n        game.creatorMerkleRoot = _merkleRoot;\n    } else {\n        game.joinerMerkleRoots[sender] = _merkleRoot;\n    }\n}\n\n    function shot(uint256 _gameId, uint256 _row, uint256 _col) public {\n    // Check if the game ID is valid\n    require(_gameId > 0, \"Invalid game ID\");\n\n    // Check if the sender is a participant in the game\n    address sender = msg.sender;\n    require(gameList[_gameId].creator == sender || contains(gameList[_gameId].joiners, sender), \"Not a participant\");\n\n    // If there's an accuser, resolve the accusation\n    if (gameList[_gameId].accuser != address(0)) {\n        emit ResolveAccuse(_gameId, gameList[_gameId].accuser);\n        gameList[_gameId].accuser = address(0);\n        gameList[_gameId].accusationTime = 0;\n    }\n\n    // Determine opponent's address and emit the event\n   /* address opponentAddress = (sender == gameList[_gameId].creator) ? gameList[_gameId].joiner : gameList[_gameId].creator;\n    emit Checkvalue(_gameId, opponentAddress, _row, _col);*/\n}\n\n\n\n    // Add other functions as needed\n}",
  "sourcePath": "/home/leonardo/primo_semestre/lezioni_secondo_semestre/P2P/P2P_Project/contracts/Bingo.sol",
  "compiler": {
    "name": "solc",
    "version": "0.8.25+commit.b61c2a91.Emscripten.clang"
  },
  "schemaVersion": "3.4.16",
  "updatedAt": "2024-05-02T14:07:09.375Z",
  "devdoc": {
    "kind": "dev",
    "methods": {},
    "version": 1
  },
  "userdoc": {
    "kind": "user",
    "methods": {},
    "version": 1
  }
}