{
  "contractName": "Bingo",
  "abi": [
    {
      "inputs": [],
      "stateMutability": "nonpayable",
      "type": "constructor"
    },
    {
      "inputs": [
        {
          "internalType": "string",
          "name": "myError",
          "type": "string"
        }
      ],
      "name": "OutputError",
      "type": "error"
    },
    {
      "anonymous": false,
      "inputs": [
        {
          "indexed": false,
          "internalType": "address",
          "name": "_sender",
          "type": "address"
        },
        {
          "indexed": false,
          "internalType": "uint256",
          "name": "_amount",
          "type": "uint256"
        },
        {
          "indexed": true,
          "internalType": "uint256",
          "name": "_gameId",
          "type": "uint256"
        },
        {
          "indexed": false,
          "internalType": "uint256",
          "name": "_response",
          "type": "uint256"
        }
      ],
      "name": "AmountEthResponse",
      "type": "event"
    },
    {
      "anonymous": false,
      "inputs": [
        {
          "indexed": true,
          "internalType": "uint256",
          "name": "_gameId",
          "type": "uint256"
        }
      ],
      "name": "GameCancelled",
      "type": "event"
    },
    {
      "anonymous": false,
      "inputs": [
        {
          "indexed": true,
          "internalType": "uint256",
          "name": "_gameId",
          "type": "uint256"
        }
      ],
      "name": "GameCreated",
      "type": "event"
    },
    {
      "anonymous": false,
      "inputs": [
        {
          "indexed": true,
          "internalType": "uint256",
          "name": "_gameId",
          "type": "uint256"
        },
        {
          "indexed": false,
          "internalType": "address",
          "name": "_winner",
          "type": "address"
        },
        {
          "indexed": false,
          "internalType": "address",
          "name": "_loser",
          "type": "address"
        },
        {
          "indexed": false,
          "internalType": "uint256",
          "name": "_reason",
          "type": "uint256"
        }
      ],
      "name": "GameEnded",
      "type": "event"
    },
    {
      "anonymous": false,
      "inputs": [
        {
          "indexed": true,
          "internalType": "uint256",
          "name": "_gameId",
          "type": "uint256"
        },
        {
          "indexed": false,
          "internalType": "address",
          "name": "_winner",
          "type": "address"
        }
      ],
      "name": "GameEnded",
      "type": "event"
    },
    {
      "anonymous": false,
      "inputs": [
        {
          "indexed": true,
          "internalType": "uint256",
          "name": "_gameId",
          "type": "uint256"
        },
        {
          "indexed": false,
          "internalType": "address",
          "name": "_creator",
          "type": "address"
        },
        {
          "indexed": false,
          "internalType": "address",
          "name": "_joiner",
          "type": "address"
        },
        {
          "indexed": false,
          "internalType": "uint256",
          "name": "_maxjoiners",
          "type": "uint256"
        },
        {
          "indexed": false,
          "internalType": "uint256",
          "name": "_totalJoiners",
          "type": "uint256"
        },
        {
          "indexed": false,
          "internalType": "uint256",
          "name": "_ethAmount",
          "type": "uint256"
        }
      ],
      "name": "GameJoined",
      "type": "event"
    },
    {
      "anonymous": false,
      "inputs": [
        {
          "indexed": true,
          "internalType": "uint256",
          "name": "_gameId",
          "type": "uint256"
        }
      ],
      "name": "GameStarted",
      "type": "event"
    },
    {
      "anonymous": false,
      "inputs": [
        {
          "indexed": true,
          "internalType": "uint256",
          "name": "_gameId",
          "type": "uint256"
        },
        {
          "indexed": false,
          "internalType": "address",
          "name": "_accuser",
          "type": "address"
        }
      ],
      "name": "ResolveAccuse",
      "type": "event"
    },
    {
      "inputs": [
        {
          "internalType": "uint256",
          "name": "",
          "type": "uint256"
        }
      ],
      "name": "elencoGiochiDisponibili",
      "outputs": [
        {
          "internalType": "uint256",
          "name": "",
          "type": "uint256"
        }
      ],
      "stateMutability": "view",
      "type": "function"
    },
    {
      "inputs": [],
      "name": "gameId",
      "outputs": [
        {
          "internalType": "uint256",
          "name": "",
          "type": "uint256"
        }
      ],
      "stateMutability": "view",
      "type": "function"
    },
    {
      "inputs": [
        {
          "internalType": "uint256",
          "name": "",
          "type": "uint256"
        }
      ],
      "name": "gameList",
      "outputs": [
        {
          "internalType": "address",
          "name": "creator",
          "type": "address"
        },
        {
          "internalType": "uint256",
          "name": "maxJoiners",
          "type": "uint256"
        },
        {
          "internalType": "uint256",
          "name": "totalJoiners",
          "type": "uint256"
        },
        {
          "internalType": "uint256",
          "name": "ethBalance",
          "type": "uint256"
        },
        {
          "internalType": "uint256",
          "name": "betAmount",
          "type": "uint256"
        },
        {
          "internalType": "bytes32",
          "name": "creatorMerkleRoot",
          "type": "bytes32"
        },
        {
          "internalType": "bytes32",
          "name": "joinerMerkleRoots",
          "type": "bytes32"
        },
        {
          "internalType": "uint256",
          "name": "accusationTime",
          "type": "uint256"
        },
        {
          "internalType": "address",
          "name": "accuser",
          "type": "address"
        }
      ],
      "stateMutability": "view",
      "type": "function"
    },
    {
      "inputs": [
        {
          "internalType": "uint256",
          "name": "_maxJoiners",
          "type": "uint256"
        },
        {
          "internalType": "uint256",
          "name": "_betAmount",
          "type": "uint256"
        }
      ],
      "name": "createGame",
      "outputs": [],
      "stateMutability": "payable",
      "type": "function"
    },
    {
      "inputs": [
        {
          "internalType": "uint256",
          "name": "_gameId",
          "type": "uint256"
        }
      ],
      "name": "joinGame",
      "outputs": [],
      "stateMutability": "nonpayable",
      "type": "function"
    },
    {
      "inputs": [
        {
          "internalType": "uint256",
          "name": "_gameId",
          "type": "uint256"
        },
        {
          "internalType": "bool",
          "name": "_response",
          "type": "bool"
        }
      ],
      "name": "amountEthDecision",
      "outputs": [],
      "stateMutability": "payable",
      "type": "function"
    }
  ],
  "bytecode": "0x60806040525f80553480156011575f80fd5b50611a9a8061001f5f395ff3fe608060405260043610610054575f3560e01c806360104cef14610058578063685385f314610074578063c6cfd08e14610090578063d7c81b55146100d4578063efaa55a0146100fe578063f0eb3df614610126575b5f80fd5b610072600480360381019061006d9190611097565b610162565b005b61008e6004803603810190610089919061110a565b61048c565b005b34801561009b575f80fd5b506100b660048036038101906100b19190611148565b6108af565b6040516100cb999897969594939291906111d9565b60405180910390f35b3480156100df575f80fd5b506100e8610937565b6040516100f59190611264565b60405180910390f35b348015610109575f80fd5b50610124600480360381019061011f9190611148565b61093c565b005b348015610131575f80fd5b5061014c60048036038101906101479190611148565b610c7f565b6040516101599190611264565b60405180910390f35b5f82116101a4576040517f08c379a000000000000000000000000000000000000000000000000000000000815260040161019b906112fd565b60405180910390fd5b5f81116101e6576040517f08c379a00000000000000000000000000000000000000000000000000000000081526004016101dd9061138b565b60405180910390fd5b5f6101ef610c9f565b90506101f9610f42565b33815f019073ffffffffffffffffffffffffffffffffffffffff16908173ffffffffffffffffffffffffffffffffffffffff16815250505f67ffffffffffffffff81111561024a576102496113a9565b5b6040519080825280602002602001820160405280156102785781602001602082028036833780820191505090505b508160200181905250838160400181815250505f8160600181815250505f816080018181525050828160a00181815250505f801b8160c00181815250505f801b8160e00181815250505f816101000181815250505f81610120019073ffffffffffffffffffffffffffffffffffffffff16908173ffffffffffffffffffffffffffffffffffffffff16815250508060015f8481526020019081526020015f205f820151815f015f6101000a81548173ffffffffffffffffffffffffffffffffffffffff021916908373ffffffffffffffffffffffffffffffffffffffff1602179055506020820151816001019080519060200190610377929190610fbe565b5060408201518160020155606082015181600301556080820151816004015560a0820151816005015560c0820151816006015560e082015181600701556101008201518160080155610120820151816009015f6101000a81548173ffffffffffffffffffffffffffffffffffffffff021916908373ffffffffffffffffffffffffffffffffffffffff160217905550905050600282908060018154018082558091505060019003905f5260205f20015f90919091909150553460015f8481526020019081526020015f206004015f8282546104529190611403565b92505081905550817fbd19c47e9925eb6f7be8bb1c13a841e0240aaeaf17f217e90022e9c8eb66877f60405160405180910390a250505050565b5f82116104ce576040517f08c379a00000000000000000000000000000000000000000000000000000000081526004016104c590611480565b60405180910390fd5b5f3390508073ffffffffffffffffffffffffffffffffffffffff1660015f8581526020019081526020015f205f015f9054906101000a900473ffffffffffffffffffffffffffffffffffffffff1673ffffffffffffffffffffffffffffffffffffffff1614806105d957506105d860015f8581526020019081526020015f206001018054806020026020016040519081016040528092919081815260200182805480156105cd57602002820191905f5260205f20905b815f9054906101000a900473ffffffffffffffffffffffffffffffffffffffff1673ffffffffffffffffffffffffffffffffffffffff1681526020019060010190808311610584575b505050505082610cb8565b5b610618576040517f08c379a000000000000000000000000000000000000000000000000000000000815260040161060f906114e8565b60405180910390fd5b816107d8578073ffffffffffffffffffffffffffffffffffffffff1660015f8581526020019081526020015f205f015f9054906101000a900473ffffffffffffffffffffffffffffffffffffffff1673ffffffffffffffffffffffffffffffffffffffff16036106bd576040517f08c379a00000000000000000000000000000000000000000000000000000000081526004016106b490611576565b60405180910390fd5b61075c60015f8581526020019081526020015f2060010180548060200260200160405190810160405280929190818152602001828054801561075157602002820191905f5260205f20905b815f9054906101000a900473ffffffffffffffffffffffffffffffffffffffff1673ffffffffffffffffffffffffffffffffffffffff1681526020019060010190808311610708575b505050505082610cf2565b50600283908060018154018082558091505060019003905f5260205f20015f9091909190915055827f4cb66ab516bedeef3035e50502f6b3b1da5140fec06e41646bf41422c60c276b8260015f8781526020019081526020015f20600501545f6040516107cb939291906115d6565b60405180910390a26108aa565b60015f8481526020019081526020015f2060040154341461082e576040517f08c379a000000000000000000000000000000000000000000000000000000000815260040161082590611655565b60405180910390fd5b3460015f8581526020019081526020015f206005015f8282546108519190611403565b92505081905550827f4cb66ab516bedeef3035e50502f6b3b1da5140fec06e41646bf41422c60c276b8260015f8781526020019081526020015f206004015460016040516108a1939291906116ac565b60405180910390a25b505050565b6001602052805f5260405f205f91509050805f015f9054906101000a900473ffffffffffffffffffffffffffffffffffffffff1690806002015490806003015490806004015490806005015490806006015490806007015490806008015490806009015f9054906101000a900473ffffffffffffffffffffffffffffffffffffffff16905089565b5f5481565b5f60028054905011610983576040517f08c379a000000000000000000000000000000000000000000000000000000000815260040161097a9061172b565b60405180910390fd5b5f80820361099a57610993610ded565b90506109e6565b8190506109a681610e41565b6109e5576040517f08c379a00000000000000000000000000000000000000000000000000000000081526004016109dc90611793565b60405180910390fd5b5b5f8111610a28576040517f08c379a0000000000000000000000000000000000000000000000000000000008152600401610a1f906117fb565b60405180910390fd5b60015f8281526020019081526020015f206002015460015f8381526020019081526020015f206003015410610a92576040517f08c379a0000000000000000000000000000000000000000000000000000000008152600401610a8990611863565b60405180910390fd5b3373ffffffffffffffffffffffffffffffffffffffff1660015f8381526020019081526020015f205f015f9054906101000a900473ffffffffffffffffffffffffffffffffffffffff1673ffffffffffffffffffffffffffffffffffffffff1603610b32576040517f08c379a0000000000000000000000000000000000000000000000000000000008152600401610b29906118f1565b60405180910390fd5b60015f8281526020019081526020015f2060010133908060018154018082558091505060019003905f5260205f20015f9091909190916101000a81548173ffffffffffffffffffffffffffffffffffffffff021916908373ffffffffffffffffffffffffffffffffffffffff16021790555060015f8281526020019081526020015f206003015f815480929190610bc89061190f565b9190505550807f66bacdfb07a49afa060b23ca1e16974d1919771fff2fd57717ab8857b0673b3460015f8481526020019081526020015f205f015f9054906101000a900473ffffffffffffffffffffffffffffffffffffffff163360015f8681526020019081526020015f206002015460015f8781526020019081526020015f206003015460015f8881526020019081526020015f2060040154604051610c73959493929190611956565b60405180910390a25050565b60028181548110610c8e575f80fd5b905f5260205f20015f915090505481565b5f805f8154610cad9061190f565b919050819055905090565b5f82515f5b81811015610ce757836020820260208701015403610cdc576001602081f35b600181019050610cbd565b50505f905092915050565b60605f835190505f5b81811015610de1578373ffffffffffffffffffffffffffffffffffffffff16858281518110610d2d57610d2c6119a7565b5b602002602001015173ffffffffffffffffffffffffffffffffffffffff1603610dd45784600183610d5e91906119d4565b81518110610d6f57610d6e6119a7565b5b6020026020010151858281518110610d8a57610d896119a7565b5b602002602001019073ffffffffffffffffffffffffffffffffffffffff16908173ffffffffffffffffffffffffffffffffffffffff16815250506001820385528492505050610de7565b8080600101915050610cfb565b50839150505b92915050565b5f8060028054905003610e02575f9050610e3e565b5f610e11600280549050610ec8565b905060028181548110610e2757610e266119a7565b5b905f5260205f2001549150610e3b82610e41565b50505b90565b5f80610e4c83610ee7565b905060028054905081108015610e6257505f8110155b15610ebe575f60015f8581526020019081526020015f209050806002015481600301541115610ebc576020600160025403026020600201015480602084026020600201015560016002540360025550600192505050610ec3565b505b5f9150505b919050565b5f804233808220925050508281610edf9190611a34565b915050919050565b5f805f90505b600280549050811015610f33578260028281548110610f0f57610f0e6119a7565b5b905f5260205f20015403610f265780915050610f3d565b8080600101915050610eed565b5060028054905090505b919050565b6040518061014001604052805f73ffffffffffffffffffffffffffffffffffffffff168152602001606081526020015f81526020015f81526020015f81526020015f81526020015f80191681526020015f80191681526020015f81526020015f73ffffffffffffffffffffffffffffffffffffffff1681525090565b828054828255905f5260205f20908101928215611034579160200282015b82811115611033578251825f6101000a81548173ffffffffffffffffffffffffffffffffffffffff021916908373ffffffffffffffffffffffffffffffffffffffff16021790555091602001919060010190610fdc565b5b5090506110419190611045565b5090565b5b8082111561105c575f815f905550600101611046565b5090565b5f80fd5b5f819050919050565b61107681611064565b8114611080575f80fd5b50565b5f813590506110918161106d565b92915050565b5f80604083850312156110ad576110ac611060565b5b5f6110ba85828601611083565b92505060206110cb85828601611083565b9150509250929050565b5f8115159050919050565b6110e9816110d5565b81146110f3575f80fd5b50565b5f81359050611104816110e0565b92915050565b5f80604083850312156111205761111f611060565b5b5f61112d85828601611083565b925050602061113e858286016110f6565b9150509250929050565b5f6020828403121561115d5761115c611060565b5b5f61116a84828501611083565b91505092915050565b5f73ffffffffffffffffffffffffffffffffffffffff82169050919050565b5f61119c82611173565b9050919050565b6111ac81611192565b82525050565b6111bb81611064565b82525050565b5f819050919050565b6111d3816111c1565b82525050565b5f610120820190506111ed5f83018c6111a3565b6111fa602083018b6111b2565b611207604083018a6111b2565b61121460608301896111b2565b61122160808301886111b2565b61122e60a08301876111ca565b61123b60c08301866111ca565b61124860e08301856111b2565b6112566101008301846111a3565b9a9950505050505050505050565b5f6020820190506112775f8301846111b2565b92915050565b5f82825260208201905092915050565b7f4d6178206a6f696e657273206d7573742062652067726561746572207468616e5f8201527f2030000000000000000000000000000000000000000000000000000000000000602082015250565b5f6112e760228361127d565b91506112f28261128d565b604082019050919050565b5f6020820190508181035f830152611314816112db565b9050919050565b7f42657420616d6f756e74206d7573742062652067726561746572207468616e205f8201527f3000000000000000000000000000000000000000000000000000000000000000602082015250565b5f61137560218361127d565b91506113808261131b565b604082019050919050565b5f6020820190508181035f8301526113a281611369565b9050919050565b7f4e487b71000000000000000000000000000000000000000000000000000000005f52604160045260245ffd5b7f4e487b71000000000000000000000000000000000000000000000000000000005f52601160045260245ffd5b5f61140d82611064565b915061141883611064565b92508282019050808211156114305761142f6113d6565b5b92915050565b7f47616d65206964206973206e65676174697665210000000000000000000000005f82015250565b5f61146a60148361127d565b915061147582611436565b602082019050919050565b5f6020820190508181035f8301526114978161145e565b9050919050565b7f506c61796572206e6f7420696e20746861742067616d652100000000000000005f82015250565b5f6114d260188361127d565b91506114dd8261149e565b602082019050919050565b5f6020820190508181035f8301526114ff816114c6565b9050919050565b7f43726561746f722063616e6e6f7420726566757365207468656972206f776e205f8201527f67616d6521000000000000000000000000000000000000000000000000000000602082015250565b5f61156060258361127d565b915061156b82611506565b604082019050919050565b5f6020820190508181035f83015261158d81611554565b9050919050565b5f819050919050565b5f819050919050565b5f6115c06115bb6115b684611594565b61159d565b611064565b9050919050565b6115d0816115a6565b82525050565b5f6060820190506115e95f8301866111a3565b6115f660208301856111b2565b61160360408301846115c7565b949350505050565b7f45544820616d6f756e742069732077726f6e67210000000000000000000000005f82015250565b5f61163f60148361127d565b915061164a8261160b565b602082019050919050565b5f6020820190508181035f83015261166c81611633565b9050919050565b5f819050919050565b5f61169661169161168c84611673565b61159d565b611064565b9050919050565b6116a68161167c565b82525050565b5f6060820190506116bf5f8301866111a3565b6116cc60208301856111b2565b6116d9604083018461169d565b949350505050565b7f4e6f20617661696c61626c652067616d657321000000000000000000000000005f82015250565b5f61171560138361127d565b9150611720826116e1565b602082019050919050565b5f6020820190508181035f83015261174281611709565b9050919050565b7f546869732067616d6520646f6573206e6f7420657869737421000000000000005f82015250565b5f61177d60198361127d565b915061178882611749565b602082019050919050565b5f6020820190508181035f8301526117aa81611771565b9050919050565b7f43686f73656e206964206e6567617469766521000000000000000000000000005f82015250565b5f6117e560138361127d565b91506117f0826117b1565b602082019050919050565b5f6020820190508181035f830152611812816117d9565b9050919050565b7f47616d6520616c72656164792074616b656e21000000000000000000000000005f82015250565b5f61184d60138361127d565b915061185882611819565b602082019050919050565b5f6020820190508181035f83015261187a81611841565b9050919050565b7f596f752063616e2774206a6f696e20612067616d6520637265617465642062795f8201527f20796f757273656c662100000000000000000000000000000000000000000000602082015250565b5f6118db602a8361127d565b91506118e682611881565b604082019050919050565b5f6020820190508181035f830152611908816118cf565b9050919050565b5f61191982611064565b91507fffffffffffffffffffffffffffffffffffffffffffffffffffffffffffffffff820361194b5761194a6113d6565b5b600182019050919050565b5f60a0820190506119695f8301886111a3565b61197660208301876111a3565b61198360408301866111b2565b61199060608301856111b2565b61199d60808301846111b2565b9695505050505050565b7f4e487b71000000000000000000000000000000000000000000000000000000005f52603260045260245ffd5b5f6119de82611064565b91506119e983611064565b9250828203905081811115611a0157611a006113d6565b5b92915050565b7f4e487b71000000000000000000000000000000000000000000000000000000005f52601260045260245ffd5b5f611a3e82611064565b9150611a4983611064565b925082611a5957611a58611a07565b5b82820690509291505056fea26469706673582212200bfb763ff15640b247df4d8f42a74a0f2c1690aba7c8b772b86519ea22080c1e64736f6c63430008190033",
  "immutableReferences": {},
  "source": "// SPDX-License-Identifier: MIT \npragma solidity ^0.8.19;\ncontract Bingo {\n    struct info {\n        address creator;\n        address[] joiners;\n        uint maxJoiners;\n        uint totalJoiners;\n        uint ethBalance;\n        uint betAmount;\n        bytes32 creatorMerkleRoot;\n        bytes32 joinerMerkleRoots; //TODO: implementa piu persone\n        uint accusationTime;\n        address accuser;\n    }\n    uint256 public gameId = 0; // Game ID counter\n    mapping(uint256 => info) public gameList; // Mapping of game ID to game info\n    uint256[] public elencoGiochiDisponibili;    // List of available game IDs\n\n    error OutputError(string myError); // event: error output\n    event GameCreated(uint256 indexed _gameId); //  Event to log game creation\n    \n    \n    //TODO: implementa piu persone\n    event GameJoined(\n        uint256 indexed _gameId,\n        address _creator,\n        address _joiner, \n        uint256 _maxjoiners,\n        uint256 _totalJoiners,\n        uint256 _ethAmount\n    );\n    event GameStarted(\n        uint256 indexed _gameId\n            \n    );\n    //TODO: AGGIUNGI DIVERSI LOSERS\n    event GameEnded(\n        uint256 indexed _gameId,\n        address _winner,\n        address _loser,\n        uint256 _reason\n        );\n\n    event ResolveAccuse(\n        uint256 indexed _gameId,\n        address _accuser\n    );\n\n    event AmountEthResponse(\n        address _sender,\n        uint256 _amount,\n        uint256 indexed _gameId,\n        uint256 _response\n    );\n\n    event GameEnded(uint256 indexed _gameId, address _winner);\n    event GameCancelled(uint256 indexed _gameId);\n\n\n    constructor() {\n        // Add constructor code\n    }\n    \n    function createGame(uint _maxJoiners, uint _betAmount)  public payable {\n        require(_maxJoiners > 0, \"Max joiners must be greater than 0\");\n        require(_betAmount > 0, \"Bet amount must be greater than 0\");\n\n    \n        uint256 gameID = getIDGame();\n        info memory newGame;\n        newGame.creator = msg.sender;\n        newGame.joiners = new address[](0);\n        newGame.maxJoiners = _maxJoiners;\n        newGame.totalJoiners = 0;\n        newGame.ethBalance = 0;\n        newGame.betAmount = _betAmount;\n        newGame.creatorMerkleRoot = 0;\n        newGame.joinerMerkleRoots = 0; //TODO: aggiorna per piu utenti\n        newGame.accusationTime = 0;\n        newGame.accuser = address(0);\n       \n        gameList[gameID] = newGame;\n           \n        elencoGiochiDisponibili.push(gameID);\n        gameList[gameID].ethBalance += msg.value;\n        emit GameCreated(gameID);\n    }\n    \n\n    function getIDGame() private returns(uint256 ) {\n        return ++gameId;\n    }\n    function joinGame(uint256 _gameId) public {\n        require(elencoGiochiDisponibili.length > 0, \"No available games!\");\n        uint256 chosenGameId;\n        if (_gameId == 0) {\n            chosenGameId = randomGame();\n        } else {\n            chosenGameId = _gameId;\n            require(removeFromArray(chosenGameId), \"This game does not exist!\");\n        }\n\n        require(chosenGameId > 0, \"Chosen id negative!\");\n        require(gameList[chosenGameId].totalJoiners < gameList[chosenGameId].maxJoiners, \"Game already taken!\");\n        require(gameList[chosenGameId].creator != msg.sender, \"You can't join a game created by yourself!\");\n\n        gameList[chosenGameId].joiners.push(msg.sender);\n        gameList[chosenGameId].totalJoiners++;\n        emit GameJoined( \n            chosenGameId,\n            gameList[chosenGameId].creator,\n            msg.sender,\n            gameList[chosenGameId].maxJoiners,\n            gameList[chosenGameId].totalJoiners,\n            gameList[chosenGameId].ethBalance\n        );\n    }\n\n    function amountEthDecision(uint256 _gameId, bool _response) public payable {\n    require(_gameId > 0, \"Game id is negative!\");\n\n    address sender = msg.sender;\n\n    require(\n        gameList[_gameId].creator == sender || contains(gameList[_gameId].joiners, sender),\n        \"Player not in that game!\"\n    );\n\n    if (!_response) {\n        require(gameList[_gameId].creator != sender, \"Creator cannot refuse their own game!\");\n        remove(gameList[_gameId].joiners,sender);\n        elencoGiochiDisponibili.push(_gameId);\n\n        emit AmountEthResponse(sender, gameList[_gameId].betAmount, _gameId, 0);\n    } else {\n        require(msg.value == gameList[_gameId].ethBalance, \"ETH amount is wrong!\");\n\n        gameList[_gameId].betAmount += msg.value;\n\n        emit AmountEthResponse(sender, gameList[_gameId].ethBalance, _gameId, 1);\n    }\n}\n\n\n\n    \n    function getInfo(uint256 _gameId) private view returns (info memory) {\n        // Restituisce la struttura dati \"info\" associata al gameId specificato\n        return gameList[_gameId];\n    }\n\n   function getRandomNumber(uint256 max) private view returns (uint256) {\n    uint256 seed;\n    assembly {\n        // Ottieni il timestamp del blocco\n        let timestampp := timestamp()\n        // Ottieni l'indirizzo del mittente del messaggio\n        let sender := caller()\n        \n\n        // Calcola l'hash keccak256\n        seed := keccak256(timestampp,sender)\n    }\n    return seed % max;\n}\n\n\n\n\n\n\n\n\n    function randomGame() private returns (uint256 idGiocoCasuale) {\n    // Verifica se ci sono giochi disponibili, altrimenti\n    if (elencoGiochiDisponibili.length == 0) {\n        return 0;\n    }\n\n    uint256 indiceCasuale = getRandomNumber(elencoGiochiDisponibili.length);\n    idGiocoCasuale = elencoGiochiDisponibili[indiceCasuale];// Ottiene l'ID del gioco corrispondente all'indice casuale\n\n    \n    removeFromArray(idGiocoCasuale);// Rimuove il gioco dalla lista degli ID disponibili se il massimo num di giocatori e' stato superato\n    return idGiocoCasuale;\n}\n\nfunction removeFromArray(uint256 _gameId) private returns (bool) {\n    // Trova l'indice dell'elemento da rimuovere\n    uint256 index = findIndex(_gameId);\n\n    // Verifica se l'elemento  stato trovato e se il numero totale di partecipanti supera il limite\n    if (index < elencoGiochiDisponibili.length && index >= 0) {\n        info storage gameInfo = gameList[_gameId];\n        if (gameInfo.totalJoiners > gameInfo.maxJoiners) {\n            assembly {\n                // Carica l'ultimo elemento dell'array\n                let lastElement := sload(add(add(elencoGiochiDisponibili.slot, 0x20), mul(sub(sload(elencoGiochiDisponibili.slot), 1), 0x20)))\n                // Sostituisci l'elemento da rimuovere con l'ultimo elemento\n                sstore(add(add(elencoGiochiDisponibili.slot, 0x20), mul(index, 0x20)), lastElement)\n                // Riduci la lunghezza dell'array\n                sstore(elencoGiochiDisponibili.slot, sub(sload(elencoGiochiDisponibili.slot), 1))\n            }\n            return true;\n        }\n    }\n    return false;\n}\n\n\n// Trova l'indice dell'elemento specificato nell'array elencoGiochiDisponibili\nfunction findIndex(uint256 _gameId) private view returns (uint256) {\n    for (uint256 i = 0; i < elencoGiochiDisponibili.length; i++) {\n        if (elencoGiochiDisponibili[i] == _gameId) {\n            return i;\n        }\n    }\n    // Se l'elemento non  stato trovato, restituisci una posizione oltre la lunghezza dell'array\n    return elencoGiochiDisponibili.length;\n}\n\n\n\nfunction contains(address[] memory array, address element) internal view returns (bool) {\n    assembly {\n        // Ottieni la lunghezza dell'array\n        let length := mload(array)\n\n        // Inizia il loop for con l'indice i = 0\n        for {\n            let i := 0\n        } lt(i, length) { // Continua finch i < length\n            // Incrementa l'indice i\n            i := add(i, 1)\n        } {\n            // Controlla se l'elemento  uguale all'elemento cercato\n            if eq(sload(add(add(array, 0x20), mul(i, 0x20))), element) {\n                // Se trovi l'elemento, restituisci true\n                let result := 1\n                return(result, 32)\n            }\n        }\n    }\n    // Se l'elemento non  stato trovato, restituisci false\n    return false;\n}\n\n\n\n\nfunction remove(address[] memory array, address element) internal pure returns (address[] memory) {\n    uint256 length = array.length;\n    // Cerca l'elemento nell'array\n    for (uint256 i = 0; i < length; i++) {\n        if (array[i] == element) {\n            // Se trovi l'elemento, sposta l'ultimo elemento nell'indice corrente\n            array[i] = array[length - 1];\n            // Riduci la lunghezza dell'array\n            assembly {\n                mstore(array, sub(length, 1))\n            }\n            // Restituisci l'array con un elemento in meno\n            return array;\n        }\n    }\n    // Se l'elemento non  stato trovato, restituisci l'array originale\n    return array;\n}\n\n    // Add other functions as needed\n}",
  "sourcePath": "/home/leonardo/primo_semestre/lezioni_secondo_semestre/P2P/P2P_Project/contracts/Bingo.sol",
  "compiler": {
    "name": "solc",
    "version": "0.8.25+commit.b61c2a91.Emscripten.clang"
  },
  "schemaVersion": "3.4.16",
  "updatedAt": "2024-04-28T20:29:57.788Z",
  "devdoc": {
    "kind": "dev",
    "methods": {},
    "version": 1
  },
  "userdoc": {
    "kind": "user",
    "methods": {},
    "version": 1
  }
}